:020000040800F2
:10000000008000202D0C00081D080008AD08000825
:10001000BD080008C1080008C5080008000000006D
:10002000000000000000000000000000C9080008F7
:10003000CD08000800000000D1080008D50800081D
:100040007D0C00087D0C00087D0C000800000000FD
:100050007D0C00087D0C00087D0C000800000000ED
:100060007D0C00087D0C0008000000007D0C0008DD
:100070007D0C00087D0C00087D0C00087D0C00083C
:100080007D0C00087D0C00087D0C00087D0C00082C
:100090007D0C00087D0C00087D0C00087D0C00081C
:1000A0007D0C00087D0C00087D0C0008D9080008B4
:1000B000E50800087D0C00087D0C00087D0C000898
:1000C0007D0C00087D0C00087D0C00087D0C0008EC
:1000D000000000007D0C00087D0C00087D0C00086D
:1000E0007D0C00087D0C00087D0C00087D0C0008CC
:1000F0007D0C00087D0C00087D0C0008000000004D
:10010000000000007D0C00087D0C00087D0C00083C
:100110007D0C00087D0C00087D0C00087D0C00089B
:100120007D0C00087D0C0008F10800087D0C00081B
:100130007D0C000800000000000000007D0C00089D
:100140007D0C00080000000000000000000000001E
:1001500000000000000000007D0C0008000000000E
:1001600000000000000000007D0C00087D0C00086D
:10017000000000000000000000000000000000007F
:10018000000000000000000000000000000000006F
:10019000000000000000000000000000000000005F
:1001A00000000000000000007D0C00087D0C00082D
:1001B0007D0C00087D0C00087D0C00087D0C0008FB
:1001C0007D0C00087D0C000800000000000000000D
:1001D0000000000000000000000000007D0C00088E
:1001E0007D0C00080000000000000000000000007E
:1001F00000000000000000000000000000000000FF
:10020000000000007D0C00087D0C000800000000CC
:10021000000000007D0C000800000000000000004D
:100220000000000000000000000000007D0C00083D
:100230007D0C00080000000000000000000000002D
:100240000000000000000000000000007D0C00081D
:080250007D0C00087D0C000884
:1002580010B5054C237833B9044B13B10448AFF3F8
:1002680000800123237010BD300000200000000032
:100278000C59000808B5034B1BB103490348AFF3F9
:10028800008008BD00000000340000200C59000860
:1002980053B94AB9002908BF00281CBF4FF0FF31E5
:1002A8004FF0FF3000F0B0B9ADF1080C6DE904CEA5
:1002B80000F006F8DDF804E0DDE9022304B0704739
:1002C8002DE9F04F099D884604468E46002B4AD1F9
:1002D8008A4217465FD9B2FA82F64EB1C6F12003B8
:1002E80001FA06FEB740B44020FA03F343EA0E0EC3
:1002F8004FEA17481FFA87FC230CBEFBF8F108FBEE
:1003080011EE01FB0CF243EA0E439A4207D9FB189F
:1003180001F1FF3002D29A4200F2548101469B1A41
:10032800A2B2B3FBF8F008FB103300FB0CFC42EA66
:10033800034294450BD9BA1800F1FF332CBF0124AE
:100348000024944502D9002C00F03F81184640EA69
:100358000140A2EB0C0200211DB1F2400023C5E9C7
:100368000023BDE8F08F8B4205D90DB1C5E9000126
:1003780000210846F5E7B3FA83F100294ED1434539
:10038800C0F01281824240F20F810846002DE8D069
:10039800C5E9004EE5E7002A00F0AC80B2FA82F623
:1003A800002E40F0BB808B1A4FEA124EBCB20121DE
:1003B800020C80B2B3FBFEFC0EFB1C3342EA034383
:1003C80004FB0CF29A420ED9FB180CF1FF382CBF33
:1003D8004FF001094FF000099A4203D9B9F1000F13
:1003E80000F0EC80C4469B1AB3FBFEF80EFB1833F2
:1003F80004FB08F440EA034294420BD9BA1808F106
:10040800FF332CBF01200020944202D9002800F0BD
:10041800D1809846121B48EA0C409DE7C1F120069E
:100428008B4008FA01F400FA01F922FA06F728FAD3
:1004380006F88A401F4320FA06F3380C23431FFAB4
:1004480087FC1C0CB8FBF0FE00FB1E8844EA08443D
:100458000EFB0CF8A0450ED93C190EF1FF3A2CBF43
:100468004FF0010B4FF0000BA04503D9BBF1000F73
:1004780000F0B880D646A4EB08041FFA83F8B4FB52
:10048800F0F300FB134403FB0CFC48EA0444A445C6
:100498000ED93C1903F1FF302CBF4FF001084FF083
:1004A8000008A44503D9B8F1000F00F09F80034667
:1004B80043EA0E40A4EB0C04A0FB02EC644573462F
:1004C800E04602D307D1F14505D2BEEB02036CEB3F
:1004D800070C0138E0465DB1B9EB030264EB080490
:1004E80004FA06F622FA01F3CC401E43C5E900647B
:1004F800002136E7B1FBF2FC010C144680B29646A7
:1005080041EA08412026904640EA01431046B1FBE3
:10051800F2F1A3EB080341EA0C414BE7B740C6F1FF
:10052800200301FA06F221FA03F84FEA174E20FADF
:1005380003F3BCB2B0401343020C190C80B2B8FBF1
:10054800FEF90EFB198841EA084109FB04F88845C1
:1005580051D9791809F1FF3C2CBF4FF0010A4FF02F
:10056800000A884502D9BAF1000F31D0A1EB080181
:10057800B1FBFEF909FB04F80EFB19119BB243EA23
:100588000143434535D2FB1809F1FF312CBF4FF029
:10059800010A4FF0000A4345BBD2BAF1000FB8D1A7
:1005A800A9F102013B44B4E7841A68EB0302012075
:1005B8009646EBE63A44A8F102082BE7ACF1020CA8
:1005C8003B4410E702393B44A9E63A440238BEE608
:1005D800A7EB0808A9F1020C4144B1FBFEF909FB9D
:1005E80004F8C9E7AEF1020E3C4444E7023B3C4440
:1005F8005EE749468DE7A1EB0801CC46B1FBFEF961
:1006080009FB04F8B8E700BF704700BF002200B537
:100618000F4B83B0D3F888101B2041F00101C3F8B9
:100628008810D3F88830114603F001030193019B29
:1006380000F0FAFB1B2000F033FC00221C201146BE
:1006480000F0F2FB1C2003B05DF804EB00F028BCBE
:10065800000C0244002230B589B0CDE90222CDE970
:100668000422174B0692D3F88C40164D44F08004B0
:10067800C3F88C40D3F88C40284604F080040094DA
:10068800009CD3F88C404FF4005144F00204C3F8A6
:100698008C40D3F88C3003F002030193019B01F0E6
:1006A80041FA002000214FF400520123CDE9040152
:1006B800284602A9CDE9022301F004F909B030BDAA
:1006C800000C024400040242F0B59DB02022002133
:1006D8000AA805F0DDF80023CDE90233CDE904339B
:1006E800CDE90633214A136923F0300343F0200390
:1006F8001361136903F030030193019B53691B07CE
:10070800FCD5062201204FF48031022314920325E0
:100718006422082400260027CDE9080108A8CDE9AD
:100728001235CDE916331893CDE91A671592199445
:1007380001F092FA034608B172B6FEE7CDE9044328
:100748001F23052102A8CDE906670395029301F04E
:10075800D9FD08B172B6FEE7054A136823F03003E5
:1007680043F0200313601DB0F0BD00BF0008024431
:10077800002002404FF00062F0B51F4B85B09A6030
:10078800BFF34F8FBFF36F8F00F0F2FA62B6FFF737
:100798009BFF1A4FFFF75EFF194EFFF737FF194D02
:1007A80000F0F2F804F082F915E064230C223046D8
:1007B80003F008F922464FF40051284601F0B2F937
:1007C80004F0DCF938B901224FF40051284601F051
:1007D800A9F904F07BF901A804F078FA044620B9D5
:1007E800BDF804300849002BDFD1642309223946BB
:1007F800304603F0E7F8E6E700ED00E0345900087A
:1008080040010020000402422459000872B6FEE7A5
:10081800704700BF00221E4B82B000925A6D5005EF
:1008280024D41C4BD3F80421002A11DB1A4B5A6834
:10083800110708D59A68920705D5042200925A69CB
:1008480042F002025A61009B0BB963230093FEE752
:1008580003220092D3F8082192B20192D3F804211E
:1008680042F00042C3F80421019BDFE701214FF465
:10087800806200919A65BFF34F8F0849084BCA6898
:1008880002F4E0621343CB60BFF34F8F00BFFDE774
:10089800000C0244002002400060024000ED00E02D
:1008A8000400FA05024B9A6ADA6A5A6B9B6BFEE7F8
:1008B80000ED00E0FEE700BFFEE700BFFEE700BF77
:1008C800704700BF704700BF704700BF00F076BA9E
:1008D800014800F047BD00BF50000020014800F06B
:1008E80041BD00BFC8000020014803F0BDBA00BFE9
:1008F80040010020F0B4002201274FF000661B4998
:100908001B48D1F888301B4D43F47003C1F8883078
:10091800194B1A4C1F60DA611A621F683840186058
:100928009A62DA625D639A63DD631A64186820F478
:10093800802018601A658E60A36903F04043B3F104
:10094800404F01D0F0BC7047E369DB0703D50C4A80
:100958000C4BE260E360094BF0BCDA6942F002023A
:10096800DA61DA6942F00102DA61704700ED00E00D
:10097800E3EAE2FA80020101000C0244002002408E
:100988003B2A19087F6E5D4C00234FF4E1310C229D
:1009980010B51F481F4CC0E90113C0E90333C0E973
:1009A8000523C0E90733C0E90933046003F008FEF2
:1009B80080B94FF08041164803F0D0FF98B94FF046
:1009C8008061134804F00CF8B0B9114803F088FFAF
:1009D800C8B910BDFFF71AFF4FF080410C4803F06B
:1009E800BDFF0028EBD0FFF711FF4FF080610848EA
:1009F80003F0F6FF0028E8D0FFF708FF044803F0EB
:100A08006FFF0028E5D0BDE81040FFF7FFBE00BF2C
:100A18004001002000380140F0B500210446ABB089
:100A2800882208A8CDE90311CDE90511079104F042
:100A38002FFF534B22689A4201D02BB0F0BD012200
:100A480000230321CDE90823062224230A91CDE9B6
:100A58000B230221022202230D91CDE90E23082146
:100A68004FF40032012308A810911392159301F056
:100A780053FF002874D10625022000260827414B81
:100A880003A9D3F8A42042F48042C3F8A420D3F8E1
:100A9800A42002F480420192019AD3F88C2042F0FB
:100AA8000102C3F88C20D3F88C30CDE9035003F051
:100AB800010335480293354D029BCDE9056607973A
:100AC80000F000FF324B16222B6001234FF48061A7
:100AD800C5E909334FF400032846C5E90317C5E9FA
:100AE8000126C5E90566C5E90B66EE616E632B62F2
:100AF80000F05EFA00283FD110212448E567EC6534
:100B080000F0F2FCA8BB4FF40021224D0023152071
:100B1800012269614FF44001C5E90103C5E90333C6
:100B2800C5E90633C5E90B336B631B4B2846C5E99A
:100B380009222B60296200F03BFAB8B91021154848
:100B4800C4F88050EC6500F0CFFC60B900223A2070
:100B5800114600F069F93A2000F0A2F92BB0F0BD77
:100B6800FFF754FE87E7FFF751FEEFE7FFF74EFE6A
:100B7800E4E7FFF74BFEC6E7FFF748FEBCE700BF18
:100B880000380140000C024400000242C800002066
:100B9800D000024050000020500002400E4B026876
:100BA8009A4200D0704710B504460C4A0621D2F884
:100BB800A4300B4823F48043C2F8A43000F046FF69
:100BC800E06F00F0C7FAD4F8800000F0C3FABDE87F
:100BD80010403A2000F072B900380140000C02447D
:100BE800000002420C4A0368934200D070470B4A47
:100BF8001278002AFAD04FF0010C094A10B40820E4
:100C080082F800C01024042102221C6218625DF8D8
:100C1800044B19621A627047003801404F000020E7
:100C28004E000020DFF834D0002103E00C4B5B5865
:100C3800435004310B480C4B42189A42F6D30B4AE6
:100C480002E0002342F8043B094B9A42F9D3FFF72C
:100C580051FE04F025FEFFF78DFDFEE70080002021
:100C6800905D0008000000202C00002030000020CB
:100C7800B0720020FEE70000704700BF38B50024BE
:100C88000C4B0D490D4A59670D489A670D490E4A94
:100C98000E4D5C679C67DD67DC67C3F88000C3F8AE
:100CA800804019661C665A665C66FFF7E5FF2046B9
:100CB80038BD00BF000C0244FFC1FEDF2B06804098
:100CC800E008100003D00A01FF1D1F0000787F0113
:100CD80070B5244E3278EAB14FF0E0231C6905461E
:100CE80014F0040418D04FF47A71B1FBF2F21E4BE1
:100CF8001C68B4FBF2F4204600F0F2F8044648B948
:100D0800024629464FF0FF3000F08EF8174B204678
:100D18001D6070BD012070BD00F030F901280DD0B4
:100D2800022815D00028E6D14FF4FA5231780E4B3C
:100D3800B2FBF1F21C68B4FBF2F4DCE74FF47A7210
:100D480031784FF4FA43B2FBF1F2B3FBF2F4D2E795
:100D58004FF47A7231784FF40043B2FBF1F2B3FBEF
:100D6800F2F4C8E70400002000000020080000207A
:100D780010B5032000F046F801F01AFC03460C4AAF
:100D88000C48126A0C4902F00F02825C0420D3401E
:100D98000B6000F0B5F80F20FFF79AFF10B101249F
:100DA800204610BD0446FFF733FD204610BD00BFA6
:100DB800000C02444859000800000020034A044B74
:100DC80011681B780B441360704700BFD4010020E2
:100DD80004000020014B1868704700BFD4010020B0
:100DE80038B50446FFF7F6FF631C054602D0044BEE
:100DF8001B781C44FFF7EEFF401BA042FAD338BD16
:100E0800040000204FF6FF0C06490302CA6803F4E9
:100E1800E06302EA0C02134343F0BF6343F4003378
:100E2800CB60704700ED00E01B4B00B5DB68C3F3F7
:100E38000223C3F1070EBEF1040F03F1040C28BF0F
:100E48004FF0040EBCF1060F1CD9A3F1030C4FF0B0
:100E5800FF3303FA0CF322EA03024FF0FF3303FADD
:100E68000EF321EA030303FA0CF313431B010028D2
:100E7800DBB20ADB00F1604000F5614080F8003326
:100E88005DF804FB00229446E7E7044A00F00F00EF
:100E9800024413765DF804FB00ED00E0FCEC00E092
:100EA800002807DB012300F01F01034A40098B409B
:100EB80042F82030704700BF00E100E000280CDB5A
:100EC80001220649430900F01F002033824041F8FF
:100ED8002320BFF34F8FBFF36F8F704700E100E00F
:100EE800431EB3F1807F09D24FF0E0220020536106
:100EF8009061136943F00303136170470120704741
:100F0800042813D8DFE800F02A1A031213004FF060
:100F1800E0210B69184A23F004030B61D2F8E4308E
:100F280023F00C0343F00803C2F8E43070474FF095
:100F3800E022136943F00403136170474FF0E02186
:100F48000B690D4A23F004030B61D2F8E43023F057
:100F58000C0343F00403C2F8E43070474FF0E0217B
:100F68000B69054A23F004030B61D2F8E43023F03F
:100F78000C03C2F8E4307047000C02444FF0E02341
:100F88001B695B070FD4094BD3F8E40000F00C0091
:100F9800042806D0A0F10800B0FA80F0400940000B
:100FA8007047012070470420704700BF000C0244BE
:100FB80070B50446FFF70EFF002C00F0B38005461D
:100FC800002094F85410236801F0FF0284F84C00C4
:100FD800002966D0022284F854205A6942F0060299
:100FE8005A6106E0FFF7F6FE431B052B00F29580D9
:100FF80023685A69D207F5D459696269D4E9075058
:1010080021F443012A4325690143A0692A43596110
:101018000243A168206BE5680143207901434A48EF
:10102800834244D08030834241D0803083423ED0D6
:10103800803083423BD08030834238D08030834236
:1010480035D08030834232D0803083422FD000F5B3
:10105800486083422BD08030834228D0803083423E
:1010680025D08030834222D0803083421FD0803008
:1010780083421CD08030834219D08030834216D0FE
:10108800B5F5806F1A6455D0B5F5007F4CD05A6C11
:101098002E48656B02402A430A4300215A6499642A
:1010A80033E0C4E91822C4E91A22226792E7A06A49
:1010B800E66A0138000500F07C700243606A32433A
:1010C8000138000100F47C700243B5F5806F1A64A2
:1010D8002DD0B5F5007F27D05A6C1C48656B0240AF
:1010E8002A430A4300215A64194A9964934209D051
:1010F8008032934206D002F57862934202D0803261
:10110800934202D100225A659A6500200122D867CD
:10111800A06584F85420256570BD10220323A265BC
:1011280084F85430012070BD41F40071D4E741F4D3
:101138008061D1E70020656B5A6C044E2943324028
:101148000A435A649864E0E7500002400021C03C1A
:101158005003024070B50446FFF73CFE002C52D005
:10116800266805467369324643F00603736105E055
:10117800FFF730FE431B052B40D82268536913F054
:101188000103F5D1214913608A4253611364536402
:101198009364D3641365D36709D01D4B9A4206D074
:1011A80003F578639A4202D080339A4202D1002331
:1011B800536593650120C2F30B03503B6FF30B0695
:1011C800C3F3C413716800FA03F34FF4FE4021EA35
:1011D800030100237160D060E26DC4E91833C4E9EB
:1011E8001A33C4E91C3302B1E3650023A36584F80C
:1011F8004C3084F854301846236570BD1022032300
:10120800A26584F85430012070BD00BF500302402D
:10121800D003024000283FD070B4046D002C36D1B2
:1012280090F84CC0BCF1010F34D04FF0010C80F89D
:101238004CC090F854C0BCF1010F24D102254FF4E2
:10124800FE4680F8545084650468A56C63F30F0566
:10125800A564456EE660E1642265636943F4BA43B8
:1012680063611DB1636943F400736361036F1BB16C
:10127800636943F4005363610020636943F0010329
:10128800636170BC7047402380F84C40836501203F
:1012980070BC70470220F4E70120704738B5044657
:1012A800FFF798FD002C34D094F85430022B2BD142
:1012B8000521236805465A6942F004025A6184F8F8
:1012C800541005E0FFF786FD431B052B23D8236840
:1012D8001A699104F6D504254FF4FE4001215A6994
:1012E80042F002025A61226D84F854501206D86006
:1012F80084F8541003D50022606F01739A640023A8
:1013080084F84C30184638BD20220023A26584F8A2
:101318004C30012038BD0321A36D226D43F010032A
:101328001006A36584F8541002D50122636F1A735E
:10133800002384F84C30ECE7034628B190F8542099
:10134800022A03D0202282650120704704211A68EE
:1013580083F854105369002043F400530B4353613E
:10136800704700BF0121036810B5C3F30B020446A0
:1013780023F47F6020F00F00503AC068C2F3C41213
:101388009140014200F0A5801A69520509D55A69B1
:10139800500506D54FF48062DA60A26D42F0010272
:1013A800A2651A69110509D55A69120506D54FF4BF
:1013B8000062DA60A26D42F00202A2651A69D004E6
:1013C80009D55A69D10406D54FF48052DA60A26D66
:1013D80042F00402A2651A69520409D55A695004F8
:1013E80006D54FF48042DA60A26D42F00802A26589
:1013F8001A6991050AD55A69920507D54FF4007103
:10140800626ED96012B12046904723681A69900429
:1014180011D55A6991040ED54FF40052DA6094F848
:101428005420042A3DD00521226F84F8541012B1AB
:101438002046904723681A69D00518D55A69D105FE
:1014480015D5226D120645D5DA6F32B99A6C22B9D4
:101458000122616F84F854200A734FF44070002110
:10146800226ED86084F84C100AB120469047A36DCC
:10147800002B2ED0226801215369206D43F002030E
:1014880053610022030648BF636F84F8541048BFB5
:101498001973A36E84F84C20DBB12046BDE81040D8
:1014A800184701215A69206D22F400525A615A697D
:1014B80042F002025A61020684F8541003D5002251
:1014C800606F01739A640022E36E84F84C20002B4D
:1014D800E3D110BD9A6C002ABFD1012284F85420B0
:1014E800BBE700BF806D7047C0B1CB0614D54FF085
:1014F800010C036801F01101C3F30B02503A6FF3BA
:101508000B031129C2F3C41259680CFA02F20CBF7A
:101518000A4321EA02025A600020704701207047FE
:10152800F0B1436FE3B1026DD2B110B490F854102A
:101538000268012954695FFA81FC04D0BCF1020FEA
:1015480010D1E1030ED590F854100129CCB212D075
:101558000020536943F0010353615DF8044B704761
:10156800012070470023402280F84C3082655DF8E6
:10157800044B0120704790F84C1001292BD0002112
:101588004FF0020C80F84C4080F854C083F80CC02F
:10159800816519615169446E41F4BA4151611CB1C8
:1015A800516941F400715161016F19B1516941F4F8
:1015B800005151611B68094C186A094910F0020F63
:1015C8004FF6FC7018BF21461C0C034024040B4343
:1015D8001460D367BCE70220BFE700BF000001FE2C
:1015E800000001F82DE9F8430023DFF8F8900646DB
:1015F8000F469046C9F80430FFF7ECFB384C054617
:1016080005E0FFF7E7FB401BB0F57A7F49D8236A6E
:1016180013F00B0FF5D1236A13F41E0338D1236A94
:10162800DA0348BF4FF480332D4A48BF236326F0BE
:101638000043C9F80860022B936A43F002039362DF
:1016480034D0B8F800309BB23B80FFF7C3FB244C82
:10165800054605E0FFF7BEFB401BB0F57A7F23D8AF
:10166800236A13F00B0FF5D1236A13F41E032FD14D
:10167800236A0020DB0344BF4FF480332363184AF6
:1016880026F02046936A23EA06039362BDE8F883AE
:10169800D9F8042001201A43C9F804202363BDE8BF
:1016A800F8830320BDE8F8830320E8E7EFF310830D
:1016B80072B6D8F800203A60D8F804207A60D8F8D2
:1016C8000820BA60D8F80C20FA6083F31088BCE7C9
:1016D800D9F8042001201A432363C9F80420CEE76F
:1016E800002002400C000020064B986A10F0010010
:1016F80006D00549054A59605A60986A00F0010009
:10170800704700BF0020024023016745AB89EFCD39
:10171800044B9A6A42F001029A62986AC04300F048
:10172800010070470020024070B50446FFF752FBE5
:10173800621C18D1134A136A13F00B0FFBD1114A1C
:10174800136A13F41E0307D1136ADB0302D54FF49F
:1017580080331363002070BD0B4C01206168136354
:101768001943616070BD0546064E336A13F00B0FCE
:10177800E5D0FFF72FFB431BA34201D8002CF4D17F
:10178800032070BD002002400C0000202DE9F84F16
:10179800484E3378012B62D00122002304464FF4CF
:1017A8007A70884632707360FFF7BEFF07460028DC
:1017B80050D148F208022368B36023F000439342F3
:1017C80051D04FF0FF33C8F80030D4E902532B440E
:1017D8009D4237D2DFF8E0B0DFF8E0A0DFF8E09014
:1017E80015E003EA0903CBF82830DBF828304FF47A
:1017F8007A70134343F02403CBF82830FFF794FFA3
:10180800E8B9D4E9022301351344AB421AD9636815
:10181800AA0113F0010FDBF82830E2D123F4FE53BC
:10182800CBF82830DBF828304FF47A70134343EABA
:101838000A03CBF82830FFF777FF0028E1D00746E6
:10184800C8F800501C4922688B6A22F0004223EA3B
:1018580002038B62002333703846BDE8F88F0227F5
:101868003846BDE8F88F636803F00302032A19D0ED
:10187800DA0708D510498A6A22F0004222F02802C5
:1018880042F028028A629B0706D50B4A936A43F006
:10189800004343F0280393624FF47A70FFF744FF44
:1018A8000746CFE7044A936A43F4004343F0200312
:1018B8009362F1E70C000020002002402400008021
:1018C8003FE0FF7F2DE9F04F0D6885B0002D00F057
:1018D800B6805C4A002302EA90224FF0010BDFF841
:1018E80068A10392019159E0D0F800E00CF1FF3CA7
:1018F8000EEA060E4EEA010EBCF1010FC0F800E038
:1019080040F28580019AB8F1030F926801D1012A4B
:1019180004D0BA40C7683E403243C260E20039D5BD
:101928000F2123F0030606F1884603F0030206F5AB
:101938000836D200376E01FA02FC039927EA0C0731
:1019480001FA02F23A4332666FEA0906DAF8002031
:10195800E70254BF324049EA0202CAF80020DAF826
:101968000420A10254BF324049EA0202CAF8042006
:10197800DAF88420A70354BF324049EA0202CAF8C1
:101988008420DAF88020E10354BF324049EA020299
:10199800CAF88020013335FA03F250D00BFA03F26B
:1019A80012EA0509F6D001995F004C68032124F07A
:1019B800100C04EA010801FA07F6BCF1020F08FA54
:1019C80007F16FEA060602918ED101994FEAD30812
:1019D800096903F0070C01F00F0E0F2100EB8808CE
:1019E8004FEA8C0C0EFA0CFE01FA0CFCD8F8201009
:1019F80021EA0C0C4EEA0C0EC8F820E0D0F800C022
:101A080002990CEA060C4CEA010CC0F800C00199D6
:101A1800D0F808E0C9680EEA060E01FA07FC4CEA9D
:101A28000E0CC0F808C0D0F804C001992CEA020CCA
:101A380022099A4042EA0C0242608A6869E705B0C6
:101A4800BDE8F08F7F7F2F0000200244002964D07A
:101A58002DE9F04F00234FF0010B4FF00F082F4AEC
:101A6800DFF8BC9002EA902A23F0030403F0030293
:101A78000BFA03F5D20004F1884415EA010E08FABE
:101A880002F704F508340AFA02F240D0266E4FEA4B
:101A9800430C3E40B2421BD1D9F8802022EA0E0204
:101AA800C9F88020D9F8842022EA0E02C9F88420D7
:101AB800D9F8002022EA0E02C9F80020D9F804203B
:101AC80022EA0E02C9F80420226E22EA07022266E0
:101AD8000322066802FA0CF4264323FA02F206608F
:101AE80000EB820203F00706176AB60008FA06F64A
:101AF80027EA06061662826822EA040282604268C1
:101B080022EA05024260C26822EA0402C260013386
:101B180031FA03F2A8D1BDE8F08F70477F7F2F001C
:101B2800002002440AB1816170478162704700BF9A
:101B3800444B30B49C6A996A9A6A11F47C5F9D6B35
:101B4800C1F3052035D0C2F30012C5F3CC0505FB5F
:101B580002F207EE900A06EE902A04F00304012C24
:101B6800B8EEE77AFAEEE96A39D0032C23D15B6B39
:101B7800B7EE006AC3F3080307EE903AF8EEE77A87
:101B8800DFED315A77EEA67AC5EE876A77EE867A68
:101B980067EEA67A2B4B5B6BC3F34623013307EE44
:101BA800103AF8EEC76A87EEA67AFCEEC77A17EE07
:101BB800900A30BC70475B6BB7EE006AC3F308034A
:101BC80007EE903AF8EEE77ADFED205A77EEA67A3C
:101BD800C5EE876A77EE867A67EEA67ADAE71A683C
:101BE80092061AD519685B6B194AC3F3080307EE06
:101BF800903AC1F3C103DA40F8EEE77A06EE102A0C
:101C080077EEA66AB8EEC66AF7EE005AC6EE077A0D
:101C180036EEA57A67EE877ABCE75B6BB7EE006AAB
:101C2800C3F3080307EE903AF8EEE77ADFED095AB6
:101C380077EEA67AC5EE876A77EE867A67EEA67A99
:101C4800A8E700BF000C0244001BB74B0024744AED
:101C58000090D0030024744C002800F04983A34A64
:101C680003682DE9F041D569966A0446D80605F05F
:101C7800180506F0030624D5082D00F03E81182D1E
:101C880000F03881E369994F002B00F0EF803B6842
:101C980043F480733B60FFF79DF8804606E0FFF74A
:101CA80099F8A0EB0800022800F269813B689A05C0
:101CB800F5D5BB69226A23F47C1343EA0243BB616E
:101CC8002368D80738D5102D626800F0E580182DF4
:101CD80000F0DF80B2F5803F18D0002A00F0528172
:101CE800B2F5A02F814B00F03E82B2F5A81F1A680A
:101CF80000F0B98222F480321A601A6822F4802235
:101D08001A601A6822F480121A6004E0774A13688D
:101D180043F480331360FFF75DF8DFF8D08107469E
:101D280005E0FFF757F8C01B642800F22881D8F8AF
:101D380000309A03F5D52368980724D5E368002D69
:101D480040F05381002B00F05981684B21691A68D3
:101D580002F018028A4240F09381FFF73BF8634F84
:101D6800064605E0FFF736F8801B022800F20781D7
:101D78003B689A07F6D53B69626923F4FE0343EA98
:101D880002433B612368190719D5A369574E002BF5
:101D980000F01381D6F8F03043F08063C6F8F030D5
:101DA800FFF718F8074605E0FFF714F8C01B0228EC
:101DB80000F2E580D6F8F0301A01F5D52368580707
:101DC80036D54B4E736AD90740F1C980A368012BF9
:101DD80000F0D681002B00F09F80052B00F04F8289
:101DE800852B424BD3F8F02000F06D8222F00102DF
:101DF800C3F8F020D3F8F02022F00402C3F8F02052
:101E0800D3F8F02022F08002C3F8F020FEF7E2FFBA
:101E180041F288380646354F05E0FEF7DBFF801BA8
:101E2800404500F2AC80D7F8F0309B07F5D5236821
:101E3800990615D5636A2D4E002B00F01081336882
:101E480043F480533360FEF7C5FF074605E0FEF70D
:101E5800C1FFC01B022800F2928033689A04F6D5AD
:101E6800A36A002B40F0CC80002089E03B6823F473
:101E780080733B60FEF7AEFF804605E0FEF7AAFFE1
:101E8800A0EB080002287AD83B689B05F6D42368A3
:101E980017E7032E7FF41EAF002A00F0AF809907E2
:101EA8007FF571AFE368114E002B00F0C6803368F0
:101EB800226923F0180313433360336843F00103A6
:101EC8003360FEF787FF074604E0FEF783FFC01B79
:101ED800022854D833689B07F7D53369626923F41D
:101EE800FE0343EA0243336123684CE7000C0244D3
:101EF80000080244022E7FF4C5AEE269002A7DD0B4
:101F0800A849206A8A6922F47C1242EA00428A615E
:101F1800D90766D56268DAE6A24E41F28838D6F863
:101F2800F03023F00103C6F8F030D6F8F03023F093
:101F38008003C6F8F030D6F8F03023F00403C6F872
:101F4800F030FEF747FF074604E0FEF743FFC01BEB
:101F5800404514D8D6F8F0309807F6D467E7736A86
:101F680043F001037362FEF735FF0746736ADA0729
:101F78003FF52CAFFEF72EFFC01B0228F6D9032031
:101F8800BDE8F081874F3B6823F480333B603B68B2
:101F980023F480133B603B6823F480233B60FEF707
:101FA80019FF804605E0FEF715FFA0EB080064283E
:101FB800E5D83B689B03F6D4BDE6D6F8F03023F0AD
:101FC8008063C6F8F030FEF705FF074604E0FEF729
:101FD80001FFC01B0228D2D8D6F8F0301B01F6D476
:101FE800ECE69A077FF5CFAEE368182D7FF45BAF78
:101FF800012E7FF458AF002B7FF4AFAE0120BFE76E
:10200800182D69D0022B00F0C380664C236823F09A
:1020180080732360FEF7DEFE054604E0FEF7DAFE75
:10202800401B0228ABD823689901F7D4A36A23F48C
:10203800E02323F00303A36216E7336823F00103C8
:102048003360FEF7C7FE074604E0FEF7C3FEC01B79
:10205800022894D833689807F7D4236893E633683E
:1020680023F480533360FEF7B5FE074604E0FEF71D
:10207800B1FEC01B022882D833689B04F7D4EFE670
:102088001A6822F018020A431A60DA6902F0180284
:10209800082A00F02981DA6912F0180F40F003814C
:1020A8001A68910640F10D811A683F4BC2F3C102CC
:1020B800D3403C4A3D48126A3D4902F00F02825C17
:1020C80002F01F02D3403B4A0B601068FEF700FE87
:1020D80000283FF442AE91E7324A012B916A556BD2
:1020E8008CD0E06A01F00303834287D1236BC1F3EC
:1020F8000521994282D1636BC5F30801013B9942DE
:102108007FF47CAFA36BC5F34621013B99427FF472
:1021180075AFE36BC5F30641013B99427FF46EAF9F
:10212800236CC5F30665013B9D427FF467AF936B53
:10213800E26CC3F3CC0393423FF496AE194A936A18
:1021480023F010039362FEF745FE0546FEF742FEB4
:10215800A842FBD0E26C134BD2009A639A6A42F011
:1021680010029A6280E61A6842F480221A601A689D
:1021780022F480121A601A6842F480321A60CAE5A2
:10218800084AD2F8F03043F00103C2F8F0303DE6D7
:10219800044D2B6823F080732B60FEF71BFE064668
:1021A80010E000BF000C02440090D003485900081A
:1021B8000000002008000020FEF70CFE801B02280B
:1021C8003FF6DDAE2B689F01F6D4AB6AE16A23F4D3
:1021D8007C53226B23F003030B4343EA0223AB62D5
:1021E800D4E90E32616B013B013A5B02120402F43E
:1021F800FE0201399BB21343C1F308021343226C58
:10220800013A120602F0FE4213436B63AB6A23F0F5
:102218001003AB62E36CDB00AB63AB6A43F0100303
:10222800AB62AB6A626C23F00C031343AB62AB6A1C
:10223800A26C23F020031343AB62AB6A43F48033F0
:10224800AB622B6843F080732B60FEF7C3FD044636
:10225800284D2B6898013FF507AEFEF7BBFD001B24
:102268000228F6D98BE642F480221A601A6842F4F2
:1022780080121A601A6842F480321A604BE51D4BCE
:10228800D3F8F02042F00402C3F8F020D3F8F0208D
:1022980022F08002C3F8F020D3F8F02042F00102C7
:1022A800C3F8F020B2E5DA6902F01802102A1DD04E
:1022B800DB6903F01803182B03D1FFF739FC034639
:1022C800F7E60D4BF5E642F00402C3F8F020D3F828
:1022D800F02042F08002C3F8F020D3F8F02042F05A
:1022E8000102C3F8F02091E5044BE2E6044BE0E676
:1022F80001207047000C02440090D00300093D0003
:1023080000366E01002800F033819E4A2DE9F04125
:102318001368044603F00F038B420D460CD2136872
:1023280023F00F030B431360136803F00F038B4272
:1023380002D00120BDE8F0812368D9060DD5924965
:1023480060690A6A120A02F07002904205D90A6AA4
:1023580022F4E04242EA00220A621A070DD58A49AD
:1023680020690A6A120902F07002904205D90A6AC5
:1023780022F4E06242EA00120A625F070BD5824942
:10238800E0680A6A02F07002904204D90A6A22F0F0
:10239800700202430A629E0703F0010240F1A58021
:1023A800794EA068316A01F00F01884204D9316A78
:1023B80021F00F010143316282B36268724B032A34
:1023C8001B6800F09A80022A00F0CE80012A00F0F3
:1023D800E7809F07ADD56C4E41F28838F36923F04A
:1023E80003031343F361FEF7F5FC63680746032B09
:1023F80000F08C80022B00F09480012B06D19BE02A
:10240800FEF7E8FCC01B404500F2B480F36913F006
:10241800180FF5D123689E0707D5A0685A490A6A9C
:1024280002F00F02824200F2998056490A6802F0CF
:102438000F02AA420AD90A6822F00F022A430A6048
:102448000A6802F00F02AA427FF473AF5D070BD54A
:102458004D49E0680A6A02F07002904204D20A6AA2
:1024680022F0700202430A6218070DD54649206916
:102478000A6A120902F07002904205D20A6A22F42E
:10248800E06242EA00120A62D9060DD53E4A616945
:10249800136A1B0A03F07003994205D2136A23F4E6
:1024A800E04343EA01231362374BDA6902F018026A
:1024B800082A61D0DA6912F0180F43D11A68920617
:1024C8004AD51A68314BC2F3C102D3402E4A30486C
:1024D800126A304902F00F02805C2F4AC340BDE8FF
:1024E800F04108681360FEF7F3BB002A9DD06268CC
:1024F800254B032A1B687FF466AF98013FF56BAF45
:1025080017E7FEF767FCC31B434533D8F36903F0AD
:102518001803182BF5D17DE7FEF75CFCC01B40457E
:1025280028D8F36903F01803102BF5D172E7FEF7EA
:1025380051FCC01B40451DD8F36903F01803082B54
:10254800F5D167E7DA6902F01802102A2CD0DB69A6
:1025580003F01803182B11D00C4BB7E70A6A22F0C6
:102568000F0202430A6260E799033FF534AFE0E6E1
:10257800012070470320DDE6084BA7E7FFF7D8FAEC
:102588000346A3E700200240000C02440090D00359
:1025980048590008080000200000002000093D00FC
:1025A8009B053FF518AFC4E6004B8FE700366E0178
:1025B800124BDA6902F01802082A18D0DA6912F008
:1025C800180F08D11A6892060FD51B680C48C3F378
:1025D800C103D8407047DA6902F01802102A0AD0FD
:1025E800DB6903F01803182B03D00548704705482A
:1025F8007047FFF79DBA0448704700BF000C0244BB
:102608000090D00300093D0000366E0108B5184B54
:10261800DA6902F01802082A23D0DA6912F0180FD2
:1026280013D11A6892061AD51B681248C3F3C1035E
:10263800D8400F4B10491B6A104A03F00F03CB5CBC
:1026480003F01F03D840106008BDDA6902F01802D1
:10265800102A0BD0DB6903F01803182B03D00548A8
:10266800E7E70748E5E7FFF763FAE2E70548E0E749
:10267800000C02440090D0034859000800000020D4
:1026880000093D0000366E011D4B10B5DA6902F0F5
:102698001802082A2CD0DA6912F0180F1CD11A680F
:1026A800920623D51A68174BC2F3C102D3401449C6
:1026B800154C0A6A154802F00F02A25C02F01F02CC
:1026C800D34003600A6A1249C2F30212885C00F020
:1026D8001F0023FA00F010BDDA6902F01802102A70
:1026E8000CD0DB6903F01803182B03D0054BDEE789
:1026F800084BDCE7FFF71CFA0346D8E7064BD6E79A
:10270800000C02440090D003485900080000002043
:102718004059000800093D0000366E011D4B10B5F8
:10272800DA6902F01802082A2CD0DA6912F0180FB8
:102738001CD11A68920623D51A68174BC2F3C10236
:10274800D3401449154C0A6A154802F00F02A25CDE
:1027580002F01F02D34003600A6A1249C2F3022240
:10276800885C00F01F0023FA00F010BDDA6902F05F
:102778001802102A0CD0DB6903F01803182B03D0B9
:10278800054BDEE7084BDCE7FFF7D2F90346D8E74D
:10279800064BD6E7000C02440090D00348590008C5
:1027A800000000204059000800093D0000366E0175
:1027B8001D4B10B5DA6902F01802082A2CD0DA6924
:1027C80012F0180F1CD11A68920623D51A68174BF5
:1027D800C2F3C102D3401449154C0A6A154802F0E5
:1027E8000F02A25C02F01F02D34003600A6A12497A
:1027F800C2F30232885C00F01F0023FA00F010BD1B
:10280800DA6902F01802102A0CD0DB6903F0180309
:10281800182B03D0054BDEE7084BDCE7FFF788F9F8
:102828000346D8E7064BD6E7000C02440090D003D5
:1028380048590008000000204059000800093D00E0
:1028480000366E0170B5334C0646236823F080636A
:102858002360FEF7BFFA054604E0FEF7BBFA401B0B
:10286800022855D823681A01F7D4E36A316823F49B
:102878007C53726823F003030B4343EA0223E362A9
:10288800D6E90332013B013A5B02120402F4FE026C
:102898009BB2B168134372690139013AC1F3080167
:1028A80012060B4302F0FE421343E363E36AB26984
:1028B80023F00C031343E362E36AF26923F0200375
:1028C8001343E362E36A726A124D1343E362E36AF5
:1028D80023F01003E362236C326A6FF3CF0343EAF9
:1028E800C2032364E36A43F01003E362236843F0FE
:1028F80080632360FEF76EFA044604E0FEF76AFA86
:10290800001B022804D82B681B01F7D5002070BDD6
:10291800032070BD000C02442DE9F843D0E90032D1
:10292800DE01044608D5AE48256BD0F8E81021F042
:1029380040412943C0F8E81013F001060AD0616B42
:10294800012900F0018340F2AD82C81E022840F23E
:10295800AA8201269D0740F12D81A16B082900F06C
:10296800E78240F223811839102900F222819D481C
:1029780020FA01F1C80740F11C813546002D40F0CE
:10298800E182974FA06BD7F8D81021F038010143A6
:10299800C7F8D810590700F11181DF0412D5216C4E
:1029A800B1F1807F00F0CD8140F2398321F0807051
:1029B800B0F1806F00F0CC81B1F1407F00F0C881A8
:1029C8000126354698040ED5616CB1F5803F00F0BC
:1029D8009C8240F2D48221F48031B1F5003F00F0AE
:1029E8009B820126354659040ED5A16CB1F5802F7E
:1029F80000F0788240F2CA8221F48021B1F5002FDC
:102A080000F0778201263546DF030AD5E16CB1F183
:102A1800807F00F0E78131F0007100F0EA81012643
:102A28003546D0040AD5216DB1F1806F00F0EE81F2
:102A380031F0006100F0F18101263546110509D514
:102A48006749C86920F40040C861C869D4F8807033
:102A58003843C8619F0312D5616DB1F5807F00F0DE
:102A68005C8140F2E88221F48070B0F5806F00F05C
:102A78005B81B1F5407F00F0578101263546580348
:102A880012D5A16DB1F5805F00F06F8140F2C1826F
:102A980021F48050B0F5804F00F06E81B1F5405FB1
:102AA80000F06A810126354699020BD5616E02292C
:102AB80000F09A8040F29F800339022940F29B80FF
:102AC80001263546970506D5A16E31F0080000F0BD
:102AD800B58001263546980100F1BE8058010CD515
:102AE800216E102900F0E98140F2428221F01000A5
:102AF800202800F0E78101263546190116D5E16E38
:102B0800012900F05E8200F294813548816A41F41F
:102B180000318162002D40F05E82314FE06ED7F8BF
:102B2800E01021F007010143C7F8E010DF000DD5E0
:102B3800216F082900F0518240F29B81182900F08A
:102B4800A081202900F09D810126354698000ED5E8
:102B5800636F402B00F0218240F27281C02B00F09D
:102B68007781B3F5807F00F07381012635465107E0
:102B78000BD5E36DB3F5807F00F01A82B3F5007FC3
:102B880046D0002B4AD001263546D30640F126818F
:102B9800E36F202B00F01181302B00F01381102BF4
:102BA80000F0298201252846BDE8F88300293FF472
:102BB800E4AE0126354659077FF5EFAEE16B4029B3
:102BC80000F0E78040F2318221F04000B0F5807FCC
:102BD80000F0E680C02900F0E38001263546DCE6F7
:102BE800000C02440101010004F10800FFF72AFE6D
:102BF800054623686268002D40F05281B74F606E29
:102C0800D7F8E81021F007010143C7F8E81059E7A1
:102C180004F10800FFF716FE05466268002D40F033
:102C28002481AE49E06DD1F8E83023F440730343C2
:102C3800C1F8E830D30640F1D180A9E7002D40F073
:102C4800D881A64FD7F8E80020F008000143980182
:102C5800C7F8E8107FF542AFA14F7B6A43F0010344
:102C68007B62FEF7B7F8804606E0FEF7B3F8A0EB04
:102C78000800022800F2C8817B6AD907F5D5002D23
:102C880040F0C381954FA36FD7F8F02012F440723B
:102C980027D09A4225D0D7F8F010D7F8F02042F480
:102CA8008032C7F8F020D7F8F02022F48032C7F835
:102CB800F02021F44072C7F8F020CA0711D5FEF7BA
:102CC80089F841F28839804606E0FEF783F8A0EBE0
:102CD8000800484500F2C381D7F8F0309B07F4D5C7
:102CE800A36F03F44072B2F5407F00F0AE817B49D8
:102CF800CA6922F47C52CA61784AC3F30B03D2F83A
:102D0800F01021F44071C2F8F010D2F8F0100B4323
:102D1800C2F8F030D4E90032E0E604F10800FFF729
:102D280091FD054623686268002D40F01F816B4FB6
:102D3800606DD7F8DC1021F4E0610143C7F8DC10BE
:102D48009DE604F10800FFF77DFD054623686268EB
:102D5800002D40F00581614F206CD7F8E01021F07C
:102D6800E0610143C7F8E0102CE604F10800FFF722
:102D780069FD054623686268002D40F0EF80574FD3
:102D8800A06DD7F8DC1021F4E0410143C7F8DC104E
:102D98008AE604F10800FFF755FD054623686268D6
:102DA800002D40F0E1804D4FE06BD7F8D81021F4AA
:102DB800E0710143C7F8D810EFE504F10800FFF708
:102DC80041FD0546002D7FF4EEAE444AE16FD2F88E
:102DD800E43023F030030B43C2F8E430354628468C
:102DE800BDE8F88304F10800FFF72CFD05462368C9
:102DF8006268002D40F0B680384FE06CD7F8E410D8
:102E080021F040710143C7F8E4100AE604F1080014
:102E1800FFF718FD054623686268002D3ED12F4F45
:102E2800206DD7F8E41021F040610143C7F8E410A1
:102E380004E6033901297FF66DAE0126354675E6AD
:102E4800002B7FF492AE25498B6A43F400338B62E2
:102E5800002D40F0AB802149606FD1F8E03023F4B9
:102E6800E0730343C1F8E03081E6D3062E46B5D5BA
:102E78008EE600297FF468AE1848816A41F4003173
:102E88008162002D40F0B380144F206FD7F8E01016
:102E980021F038010143C7F8E01057E62E46CDE58A
:102EA8002E460FE600210D4D0026D5F8D80020F05B
:102EB80007000143C5F8D8104CE5084FB86A40F43C
:102EC8000030B862002D58D1044FD7F8E80020F040
:102ED80030000143C7F8E8100FE600BF000C0244B9
:102EE8000008024404F10800FFF7ACFC054623681B
:102EF8006268002D4FD15C4FA06CD7F8E41021F424
:102F080040210143C7F8E4107EE504F10800FFF70B
:102F180099FC054623686268002D35D1524F606CD4
:102F2800D7F8E41021F440310143C7F8E4105AE51A
:102F380004F10800FFF786FC054623686268002D47
:102F48003FF41FAD2E4636E604F10800FFF77AFC81
:102F58000646002875D0D4E90032FBE42E46A3E5E6
:102F68002E462FE52E465CE52E4616E52E4686E5CE
:102F780000297FF4C0AD002DA6D02E46BDE500295E
:102F88007FF42FAD002DC9D02E462CE500297FF403
:102F980039AD002DAFD02E4636E504F10800FFF715
:102FA80051FC05466268002D3FF455AF2E46DEE51C
:102FB8002D498B6A43F400338B62002D7FF455AFA3
:102FC8002FE604F10800FFF73DFC05462368626818
:102FD800002D3FF4A2AD2E46A8E504F10800FFF746
:102FE80031FC054623686268002D3FF44DAF2E463C
:102FF800ACE52E466FE51C4A936A43F400339362AE
:10300800002D7FF4D0ADE0E60325D4E900322E464A
:1030180064E500297FF446AD002D9FD1AFE6002975
:103028007FF4CEAC002D9BD195E600297FF4D5AD79
:10303800002D99D1B7E600297FF41FAD002D95D159
:1030480075E6616BD4E900322DE70748074AC16984
:1030580002EA131221F47C510A43C2614CE60326AA
:10306800D4E90032354639E5000C0244CFFFFF00B1
:10307800504AF0B4536B956A966A976A16F47C5F67
:10308800916BC6F305245DD007EE904AC1F3CC01DD
:10309800C7F3001707FB01F1C3F30803F8EEE76A6B
:1030A80007EE101A07EE903ADFED435AF8EEE77A8A
:1030B800B8EEC77AB7EE006AE7EE257A05F00303A3
:1030C800022B77EE867A67D0032B6CD012683B4BC5
:1030D800C2F3C102D34007EE103AB8EEC77A87EEC2
:1030E800266A66EE277A334A136813F0007303D012
:1030F800936A13F480333DD12E4A0360136813F0AA
:10310800007303D0936A13F4003321D1294A436032
:103118001368990118D5936A5B0315D5F0BC536BF6
:10312800B7EE007AC3F3066306EE903AF8EEE66A65
:1031380076EE876A87EEA67AFCEEC77A17EE903AA3
:1031480083607047C0E90044F0BC00238360704787
:10315800536BB7EE007AC3F3064306EE903AF8EEE7
:10316800E66A76EE876A87EEA67ABCEEC77A17EE2D
:10317800103ACBE7536BB7EE007AC3F3462306EE5B
:10318800903AF8EEE66A76EE876A87EEA67ABCEEA3
:10319800C77A17EE103AAFE79FED096A86EE267AEE
:1031A80067EE277A9FE79FED076A86EE267A67EE35
:1031B800277A98E7000C0244000000390090D003F9
:1031C8000024744A001BB74B504AF0B4D36BD56A3D
:1031D800D66AD76A16F47C5F116CC6F305245DD0F5
:1031E80007EE904AC1F3CC01C7F3001707FB01F1C2
:1031F800C3F30803F8EEE76A07EE101A07EE903AF1
:10320800DFED435AF8EEE77AB8EEC77AB7EE006A10
:10321800E7EE257A05F00303022B77EE867A67D06E
:10322800032B6CD012683B4BC2F3C102D34007EEAC
:10323800103AB8EEC77A87EE266A66EE277A334ADE
:10324800136813F0006303D0D36A13F480333DD1BD
:103258002E4A0360136813F0006303D0D36A13F493
:10326800003321D1294A43601368190118D5D36A5C
:103278005B0315D5F0BCD36BB7EE007AC3F30663D6
:1032880006EE903AF8EEE66A76EE876A87EEA67A58
:10329800FCEEC77A17EE903A83607047C0E90044A5
:1032A800F0BC002383607047D36BB7EE007AC3F39A
:1032B800064306EE903AF8EEE66A76EE876A87EEFF
:1032C800A67ABCEEC77A17EE103ACBE7D36BB7EE07
:1032D800007AC3F3462306EE903AF8EEE66A76EEF5
:1032E800876A87EEA67ABCEEC77A17EE103AAFE780
:1032F8009FED096A86EE267A67EE277A9FE79FEDAB
:10330800076A86EE267A67EE277A98E7000C024469
:10331800000000390090D0030024744A001BB74B0A
:1033280000F17E430B437ED000B5A0F500130B439C
:1033380085B000F08D82994B984271F1000346D216
:10334800A0F500530B4300F0A58242F20103984216
:1033580071F1000380F08880031F0B4300F02E8278
:10336800052871F1000380F0BF81431E0B4300F074
:1033780021810238084340F09E80894BD3F8D83029
:1033880013F0380300F09D81854A1268100102D5B8
:10339800082B00F04F82824A1168890702D5182B42
:1033A80000F0A3827E4A1268920502D5202B00F015
:1033B800E7827B4AD2F8F00010F0020000F0A48007
:1033C800A3F12803B3FA83F35B09D8039CE0002236
:1033D8000423994208BF904200F0198282428B412F
:1033E8006BD300F170430B4300F0C3816D4B9842DF
:1033F80071F1000380F0298100F17C430B4300F058
:10340800898000F17840084355D1654BD3F8E03006
:1034180003F00703042B4ED8DFE813F0120129014B
:103428004D00510132015E4AD2F8F030D2F8F02056
:1034380003F44073910702D5B3F5807F67D0584AEB
:10344800D2F8F020120103D5B3F5007F00F0F58023
:10345800534A106810F4003005D0B3F5407F00F0EF
:103468003581002070477047A0F500330B4300F00A
:103478002D824D4B984271F1000380F06381A0F5D5
:1034880080430B436CD0A0F58030084313D1444BE4
:10349800D3F8E43013F0407300F01381B3F1807F68
:1034A80000F02E823E4A106810F002002CD0B3F1D2
:1034B800007F00F01A82002026E0B1F5007F08BFE7
:1034C800904200F06681B1F5805F08BF904200F03D
:1034D8009980102908BF9042EDD1314AD2F8E430E2
:1034E80003F03003102B00F0AB801268120102D5F4
:1034F800202B00F09F812A4A106810F4005003D056
:10350800302B2A4818BF002005B05DF804FB4FF4A3
:1035180000407047224AD2F8E830126803F03003BE
:10352800920402D5002B00F032821D4A12689001E5
:1035380002D5102B00F08480194AD2F8F0209107A8
:1035480002D5202B00F01E82154AD2F8F00010F0A8
:103558000060D9D0302B0CBF4FF4FA400020D3E7DD
:103568000F4BD3F8E43013F4402300F0AA80B3F5EE
:10357800802F00F0C5810A4A1168880703D5B3F582
:10358800002F00F0B281064A106810F40070BBD01A
:10359800B3F5402F064818BF0020B5E7010020000A
:1035A800000C02440100001001000200006CDC0263
:1035B80000093D00A24AD2F8D83013F0070300F002
:1035C800CB811268100102D5012B00F033819C4A8F
:1035D8001168890702D5032B00F08781984A126881
:1035E800920502D5042B00F0CB81954AD2F8F00061
:1035F80010F0020088D0A3F10503B3FA83F35B0946
:10360800D80381E78E4AD2F8E43013F0406300F023
:103618007281B3F1806F00F07381106810F00200BE
:103628003FF472AFB3F1006F7FF445AF844B854828
:103638001B68C3F3C103D84066E74FF4FA407047EC
:1036480001A8FFF715FD02985EE700F16040084306
:103658007FF431AF7A4BD3F8E03003F4E073C02B3A
:103668002DD009D8002BEBD0402B7FF424AF01A834
:10367800FFF7AAFD019847E7B3F5807F7FF41BAFFA
:103688006F4AD2F8E830116803F04043880702D542
:10369800002B00F02A816A4A1268910503D5B3F11C
:1036A800804F00F06D81664A106810F400303FF4D6
:1036B8002BAFB3F1004F644818BF002024E76348DC
:1036C80022E705B05DF804EBFEF7DEBFD36903F42B
:1036D8007C53B3F5007FFFF4C4AED3695A48C3F3F3
:1036E8000523B0FBF3F07047A0F5805008437FF442
:1036F800E2AE534BD3F8E03013F0E06300F0FB8008
:10370800B3F1807F00F096804D4A1168890703D590
:10371800B3F1407F00F0E980494A1268920503D569
:10372800B3F1806F00F02C81454AD2F8F00010F018
:1037380002003FF4E9AEA3F1A063B3FA83F35B0997
:10374800D803E1E6A0F5802008437FF4B4AE3C4AF4
:10375800D2F8DC3003F4E043B3F5405F00F0F180C9
:1037680000F2DF80002BACD0B3F5805F3FF47FAF71
:10377800A1E63349D1F8E03003F03803182B9ED086
:1037880000F2EF80002B3FF45BAF082B3FF46FAFE4
:1037980091E62B4BD3F8E820D3F8F01002F008029A
:1037A800880740F1B280002A00F0EC80D3F8F000DE
:1037B80010F0006018BF4FF4FA40A5E6204AD2F88E
:1037C800D83013F4E0733FF47CAF1268100101D5D0
:1037D800402B2FD01A4A1168890702D5C02B00F058
:1037E8008480174A1268900503D5B3F5807F00F0EE
:1037F800C780134AD2F8F00010F002003FF484AEFC
:10380800A3F5A073B3FA83F35B09D8037CE60C4AEB
:10381800D2F8E830126803F44073910302D5002B04
:1038280000F0B380B3F5807F3FF40AAFB3F5007FB3
:103838007FF441AE01A8FFF7C7FC029864E600BF19
:10384800000C02440090D00300366E010080BB00DB
:10385800574AD2F8E83013F0070378D0012B00F06C
:10386800A280022B4CD01268900302D5032B00F0E3
:103878008C804F4A1168890701D5042B35D04C4AF2
:10388800106810F400703FF43FAE052B494818BF8C
:10389800002039E6464AD2F8E43013F440333FF4C6
:1038A80010AFB3F5803F2BD01168890702D5B3F567
:1038B800003F1AD03E4A106810F400703FF424AE5E
:1038C800B3F5403F3B4818BF00201DE6384AD2F800
:1038D800DC3003F4E063B3F5407F32D029D853B12C
:1038E800B3F5807F3FF4C3AEE5E513683248C3F310
:1038F800C103D84008E605B05DF804EBFEF758BFF1
:1039080001A8FFF761FC0398FEE5D3F8F00010F07A
:1039180000603FF4F9AD002A14BF4FF4FA400020CC
:10392800F2E5B3F5804F34D0B3F5A04F3FF4A8AE1D
:10393800C1E5B3F5806F2ED0B3F5A06F3FF4A0AE0C
:10394800B9E5D2F8F000C0F34000C003DCE505B0EB
:103958005DF804EBFEF75ABE05B05DF804EBFEF720
:10396800DDBE202B7FF4A7ADD1F8E8300A6803F05C
:10397800404392077FF58FAE002B7FF48CAE55E65F
:103988000C48C1E54FF40040BEE50C48BCE50C48C6
:10399800BAE5074B0AE7D2F8F00010F0006018BF4C
:1039A8004FF4FA40B0E505B05DF804EBFEF700BE51
:1039B800000C024400093D000090D00300366E015F
:1039C800006CDC022DE9F8431646D0F88820202A3E
:1039D8006AD10D4600293DD0002E3BD01F46036812
:1039E80004469A68120662D421234FF00008C4F8EE
:1039F8009080C4F88830FDF7EDF9A3688146B3F5E7
:103A0800805FA4F85460A4F8566055D0B4F85630D6
:103A180022689BB2002B55D07B1C2DD1D3691F0681
:103A2800FCD5002D3BD015F8013B9362B4F8563015
:103A3800013B9BB2A4F85630B4F856309BB2002B29
:103A4800ECD1D3695906FCD520230020C4F888306E
:103A5800BDE8F8830120BDE8F883002D45D015F8AE
:103A6800013B9362B4F85630013B9BB2A4F8563040
:103A7800B4F856309BB23BB3D3691E06EDD4FDF7BC
:103A8800A9F9A0EB09039F4203D317B12268136871
:103A9800F2E720230320C4F88830BDE8F88338F81B
:103AA800023BC3F30803C0E70220BDE8F8839A6825
:103AB80022F080029A6097E72369002BA6D1A846D6
:103AC8001D46A3E7781CBCD0D3695B06BCD4FDF7C0
:103AD80081F9A0EB09039F42DBD3002FD9D02268DC
:103AE8001368D3695B06F2D5AEE738F8023BC3F337
:103AF8000803B6E738B50446026852E8003F23F4E5
:103B0800F07342E800310029F7D1334802F1080385
:103B180053E8003F034002F1080545E80031002959
:103B2800F4D1E36E012B36D09368190608D5E06FFF
:103B380030B10023C366FDF7B1FB00283CD12268F1
:103B480093685B0609D5D4F8800030B10023C366BA
:103B5800FDF7A4FB002838D1226800230F20616EEE
:103B6800A4F85630B1F1005FA4F85E30106203D1BA
:103B7800936943F010039361002320259169184647
:103B880041F008019161C4F88850C4F88C50E3668C
:103B9800C4F8903038BD52E8003F23F0100342E8E3
:103BA80000310029C0D052E8003F23F0100342E85A
:103BB80000310029EFD1B7E7E06FFDF793FC10283B
:103BC800BDD1C4F89000032038BDD4F88000FDF7BB
:103BD80089FC1028C0D1F4E7FEFF7FEF38B5044612
:103BE800036853E8002F22F4907243E8002100296B
:103BF800F7D1234803F1080252E8002F024003F1ED
:103C0800080545E800210029F4D1E26E012A1AD0FE
:103C18009A68520608D5D4F8800028B10023C366F4
:103C2800FDF73CFB00BB236800220F212025A4F8E8
:103C38005E2019629969104641F008019961C4F83B
:103C48008C50E26638BD53E8002F22F0100243E89A
:103C580000210029DCD053E8002F22F0100243E8AD
:103C680000210029EFD1D3E7D4F88000FDF73AFC12
:103C780010280346D7D10320C4F8903038BD00BFC0
:103C8800FEFFFFEF704700BF704700BF704700BFDF
:103C9800704700BFC06D10B50368D0F88810D0F821
:103CA8008C409A68120601D521290DD09A685206CF
:103CB80001D5222C23D0D0F8903043F01003C0F85F
:103CC8009030FFF7E5FF10BD0022A0F8562053E81A
:103CD800002F22F0C00243E800210029F7D103F1A8
:103CE800080252E8002F22F4000203F1080C4CE805
:103CF80000210029F3D12022C0F88820D6E700222D
:103D0800A0F85E2053E8002F22F4907243E80021C7
:103D18000029F7D1134C03F1080252E8002F224082
:103D280003F1080C4CE800210029F4D1C26E012AE5
:103D380006D0002320224367C0F88C20C366BAE768
:103D480053E8002F22F0100243E800210029F0D0A8
:103D580053E8002F22F0100243E800210029EFD198
:103D6800E7E700BFFEFFFFEF08B50023C06DA0F82E
:103D78005E30FFF78DFF08BD704700BF38B50546B8
:103D8800036853E8002F22F4907243E800210029C9
:103D9800F7D1294C03F1080252E8002F224003F121
:103DA800080040E800210029F4D1EA6E012A12D067
:103DB8009A6812F0400231D0D5F88020E2B11F4B4A
:103DC8001046D366FDF7B8FA18B1D5F88000C36E6F
:103DD8009847002038BD53E8002F22F0100243E82E
:103DE80000210029E4D053E8002F22F0100243E814
:103DF80000210029EFD1DBE70F212024A5F85E2060
:103E0800AA6519629969284641F008019961C5F8BF
:103E18008C40EA66FFF7B0FF002038BD20210F2450
:103E2800A5F85E202846AA651C62C5F88C10EA66CB
:103E3800FFF7A2FF002038BDFEFFFFEF493E000854
:103E480000210F2210B52024C06D0368A0F85E1071
:103E58001A629A6942F008029A61C0F88C40C166F9
:103E6800FFF78AFF10BD00BF40F60F0C036870B55E
:103E7800DA69044612EA0C0F1D68996845D196065E
:103E880007D505F0200C01F080565CEA060C40F0DE
:103E98001081E06E012800F0C080D0021DD4100609
:103EA80006D501F4000105F08000084340F00881C0
:103EB80051061CD56E061AD553E8002F22F0400291
:103EC80043E800210029F7D1202200232046C4F826
:103ED8008820A367FFF7D6FE70BD4E02DFD54FF4EA
:103EE80080122046BDE870401A6200F0F3BC100250
:103EF80002D5690000F12281D301EDD5002DEBDA5E
:103F08002046BDE8704000F0E7BCB048084040F0EB
:103F18000A81AF4E3542BCD0D6071AD5EE0540F11E
:103F2800E88001261E62D4F8906046F00106C4F8C5
:103F38009060960740F1E080CE070AD502261E62FF
:103F4800D4F8906046F00406C4F89060560700F173
:103F5800D98016070BD505F02006064307D00820A0
:103F68001862D4F8900040F00800C4F890001605D4
:103F78000AD5680108D54FF400601862D4F890009B
:103F880040F02000C4F89000D4F890000028A3D096
:103F9800960606D505F0200501F080510D4340F046
:103FA800BA80D4F890109A6801F0280102F0400213
:103FB80052EA010500F0C78053E8002F22F49072FE
:103FC80043E800210029F7D1824803F1080252E8AA
:103FD800002F024003F1080545E800210029F4D12B
:103FE800E26E012A74D000222021C4F88C10E26607
:103FF8009B6862675D0640F19D80D4F880000028C8
:1040080000F09880744BC366FDF796F900283FF4DA
:1040180063AFD4F88000C36E4FE0D0067FF53DAFA4
:10402800EE067FF53AAF1021B4F85C201962996862
:104038004D0640F18E80D4F880000168896C89B201
:10404800002900F0BB80914280F0B880A4F85E108F
:10405800016D812923D053E8002F22F4807243E8B0
:1040680000210029F7D103F1080252E8002F22F0BD
:10407800010203F1080545E800210029F3D12022B7
:10408800C4F88C20E16653E8002F22F0100243E8C0
:1040980000210029F7D1FDF701F9B4F85C200223CB
:1040A8002367B4F85E102046511A89B2FCF79AFDCE
:1040B80070BD436F002B3FF40FAFBDE87040184749
:1040C800A36F002B3FF408AF2046BDE870401847A7
:1040D80053E8002F22F0100243E80021002982D083
:1040E80053E8002F22F0100243E800210029EFD105
:1040F80079E796073FF52DAF56077FF52AAFCE072C
:104108007FF527AF04261E62D4F8906046F00206B9
:10411800C4F890601DE7626F002A3FF442AF204662
:10412800904723683DE7D6077FF503AFEE057FF597
:1041380000AFF6E62046FFF7ABFD70BD2046BDE8B0
:10414800704000F0CBBB2046FFF7A2FDC4F89050AA
:1041580070BDB4F85E00B4F85E1080B289B2002970
:104168003FF4BAAE121A91B200293FF4B5AE53E843
:10417800002F22F4907243E800200028F7D1154D53
:1041880003F1080252E8002F2A4003F1080646E826
:1041980000200028F4D120226067C4F88C20E06653
:1041A80053E8002F22F0100243E800200028F7D13E
:1041B800022320462367FCF715FD70BD91427FF46A
:1041C8008BAE036D812BF3D070BD00BF01000010D2
:1041D80020010004FEFFFFEF713D0008012208B531
:1041E8000346C06D0267C26E012A12D1B0F85C1096
:1041F8001B684A08A0F85E209B6C9BB2994228BFB6
:10420800A0F85E30B0F85E30C91A89B2FCF7EAFC53
:1042180008BDFFF73BFD08BD08B5036D8446812B3B
:10422800C06D1DD000230268A0F85E3052E8003F40
:1042380023F4807342E800310029F7D102F1080322
:1042480053E8003F23F0010302F1080E4EE8003165
:104258000029F3D12023C0F88C30C36E012B17D06E
:1042680000230367C26E012A23D1DCF80020A0F8DE
:104278005E30936CB0F85C109BB2994288BFA0F88E
:104288005E30B0F85E30C91A89B2FCF7ABFC08BDE5
:1042980052E8003F23F0100342E800310029DFD044
:1042A80052E8003F23F0100342E800310029EFD123
:1042B800D6E7FFF7E9FC08BD836A10B41A0706D5EC
:1042C8000168846B4A6822F4004222434A60DC0792
:1042D80006D50168C46A4A6822F4003222434A605B
:1042E800990706D50168046B4A6822F48032224394
:1042F8004A605A0706D50168446B4A6822F480224E
:1043080022434A60DC0606D50168C46B8A6822F439
:10431800805222438A60990606D50168046C8A682F
:1043280022F4005222438A605A060AD50168446C76
:104338004A68B4F5801F22F4801242EA04024A60F7
:104348000BD01B0606D50268C16C536823F4002302
:104358000B4353605DF8044B70474A68846C22F441
:10436800C00222434A60ECE738B500230446C0F88F
:104378009030FCF72FFD2268054613681B070FD401
:104388001368590731D4002320221846C4F888201E
:10439800C4F88C20E3662367002384F8843038BD92
:1043A800D3699802ECD40CE019681A46490705D578
:1043B800D96908074AD4D969090575D4DB6998020F
:1043C800DED4FCF707FD431BB3F1007F2368EBD372
:1043D80053E8002F22F0800243E800210029F7D19A
:1043E8002023C4F888300320D6E7D3695B02CAD4F7
:1043F8000DE01A68500707D5DA69110700F18280C5
:10440800DA69120500F1AC80DB695B02BBD4FCF70A
:10441800E1FC431BB3F1007F2368EAD353E8002F84
:1044280022F4907243E800210029F7D103F1080231
:1044380052E8002F22F0010203F1080040E80021B1
:104448000029F3D12023C4F88C30CCE708221A6263
:1044580053E8002F22F4907243E800210029F7D195
:10446800564803F1080252E8002F024003F10805FC
:1044780045E800210029F4D1E26E012A0BD0002280
:1044880020200821C4F88C006267E26684F8842042
:10449800C4F890109CE753E8002F22F0100243E87C
:1044A80000210029F7D1EAE74FF400621A6253E8C5
:1044B800002F22F4907243E800210029F7D13F48E9
:1044C80003F1080252E8002F024003F1080545E80D
:1044D80000210029F4D1E26E012A0AD0002220210D
:1044E8006267C4F88C1084F88420E266C4F89010DF
:1044F8006EE753E8002F22F0100243E8002100295C
:10450800F7D1EBE708221A6253E8002F22F49072E1
:1045180043E800210029F7D1284803F1080252E8AE
:10452800002F024003F1080545E800210029F4D1D5
:10453800E26E012A0BD0002220200821C4F88C004A
:104548006267E26684F88420C4F8901066E753E84E
:10455800002F22F0100243E800210029F7D1EAE7F2
:104568004FF400621A6253E8002F22F4907243E875
:1045780000210029F7D1114803F1080252E8002F61
:10458800024003F1080545E800210029F4D1E26E54
:10459800012A0AD0002220216267C4F88C1084F80E
:1045A8008420E266C4F8901038E753E8002F22F020
:1045B800100243E800210029F7D1EBE7FEFFFFEFE7
:1045C800002800F0DD80D0F8883070B50446002B54
:1045D80000F0CE8024232568C4F888302B68A26AAE
:1045E80023F001032B60002A40F0BE80D4E90421A7
:1045F800A368286813430B43E269774913430140D2
:104608000B432B606B68E16823F440530B437349F9
:104618006B608D42A369606A68D0A968266A21F038
:104628006E4121F4306133430B43AB60EB6A6C4954
:1046380023F00F0303438D42EB622BD0694B9D425D
:1046480000F09B8068480021281AB0FA80F04009E1
:104658008000B2F5004F24D0FEF762FE00286CD02F
:10466800624A616A636832F811104FF6EF72B0FB64
:10467800F1F000EB5300B0FBF3F0A0F1100393420C
:1046880053D800234FF001112268D0606367A166F8
:10469800A36758E0B2F5004F4FF001004FF000015A
:1046A800DAD1FEF73DFE002847D0504B616A6268B8
:1046B80033F811105308B0FBF1F003EB4003B3FBE0
:1046C800F2F34FF6EF71A3F110028A422DD823F0CE
:1046D8000F0189B2C3F342030B434FF001100021CD
:1046E8002268D3606167A066A1672CE0AA680021F0
:1046F80022F06E4222F430621A43AA60EB6A23F079
:104708000F030343EB624FF48050FEF709FE0346A4
:10471800002837D0616A354A656832F8112005EB00
:104728004501B3FBF2F38B4233D200234FF0011261
:1047380001206367A266A36770BD4FF00113C4E947
:104748001D002268A36653682046BDE8704023F424
:1047580090435360936823F02A039360136843F0EF
:1047680001031360FFF700BE2046FFF7A5FD3DE7F4
:1047780080F88430FCF750F92CE70220002168E724
:10478800012070474FF00111C4E91D332268A1666A
:10479800D9E7B3EB053FC8D8002633463146FBF7C7
:1047A80077FD09024FEA550C41EA1061000210EB4F
:1047B8000C002A46334641F10001FBF769FD0C4B1A
:1047C800A0F540729A42B0D84FF001132268D06029
:1047D800C4E91D66A366B6E7F369FFCF0024004469
:1047E8000038014000440040004800405859000883
:1047F800FFFC0F0070B500252226C0F89050044633
:104808008165A0F85C20C0F88C60D0F88000E8B121
:10481800C5662D4D1346A26805662C4DB2F5805F1E
:1048280045662B4D856637D0026D12063CD5426F22
:10483800002A41D01268002A3ED093602368116193
:104848002433D360FCF76CFE002835D123694BB1C3
:10485800236853E8002F42F4807243E800210029BE
:10486800F7D100E0236803F1080252E8002F42F074
:10487800010203F1080040E800210029F3D103F107
:10488800080252E8002F42F0400203F1080141E813
:1048980000200028F3D170BD2269002AC4D1026D1E
:1048A8005B0012069BB2C2D425680A4605F12401B2
:1048B800FCF7B0FC0028C9D010222023C4F89020AF
:1048C8000120C4F88C3070BD21420008E541000881
:1048D8009D3C0008704700BF704700BF704700BF8D
:1048E80090F88420012A32D0034624214FF0005C3E
:1048F8000268F0B5C3F888101168146841EA0C0121
:1049080024F001041460C3F864C0116091689268CF
:10491800104E4FEA527EC1F3426C0F4D16F80E103E
:1049280016F80C2015F80C4015F80E600020C90088
:10493800D2002027B1FBF6F1B2FBF4F283F8840031
:10494800C3F88870A3F86A10A3F86820F0BD0220A5
:10495800704700BF785900087059000890F8842003
:10496800012A37D0034624201A6830B5C3F88800D6
:10497800146810685D6E20F001001060906820F0E7
:1049880060400143916015B391689068C1F3426C2F
:104998001149124D4FEA507E11F80E0011F80C1013
:1049A80015F80EE015F80C50C000C900B0FBFEF079
:1049B800B1FBF5F1A3F8681000212025A3F86A00DF
:1049C800146083F884100846C3F8885030BD01216C
:1049D8000846EFE702207047785900087059000828
:1049E80090F88420012A37D0034624201A6830B56D
:1049F800C3F88800146810685D6E20F0010010602C
:104A0800906820F060600143916015B391689068E8
:104A1800C1F3426C1149124D4FEA507E11F80E0055
:104A280011F80C1015F80EE015F80C50C000C9006C
:104A3800B0FBFEF0B1FBF5F1A3F8681000212025CA
:104A4800A3F86A00146083F884100846C3F88850F5
:104A580030BD01210846EFE7022070477859000869
:104A68007059000870B5D0F88C60202E03D101B1C0
:104A78001AB9012070BD022070BD01250023C5664A
:104A880003670446FFF7B6FE0028F3D1E36EAB4296
:104A9800EFD110232268136252E8003F43F010035D
:104AA80042E800310029F7D170BD00BF08B50648BB
:104AB80000F00CF900B908BD00F066F9BDE808403F
:104AC800014800F003B900BFDC01002038B5254DCE
:104AD8002B6803F16043B3F5004F3FD872B6224804
:104AE800FCF75CF80024FCF7C9F84FF0FF324FF0F0
:104AF800E0211E4B1E480C614C618C61C3F880207C
:104B0800C3F88021C3F88420C3F88421C3F888201F
:104B1800C3F88821C3F88C20C3F88C21C3F89020EF
:104B2800C3F89021C3F89420C3F89421C3F89820BF
:104B3800C3F89821C3F89C20C3F89C218560BFF373
:104B48004F8FBFF36F8F2B6883F3088809496B6811
:104B5800094A0B6013609847204638BD4FF0FF3074
:104B680038BD00BF008000084001002000E100E0DF
:104B780000ED00E0E8010020EC01002001232DE910
:104B8800F04F484A484983B01160484ADFF834A1D9
:104B98001288AAF80020464A137000F08BF900200A
:104BA80000F03EF900287AD0FCF714F9DFF81081FC
:104BB80005464FF4205240463E49FFF753FF002870
:104BC80066D1D8F880304AF6AA273B4E3B4CDFF82E
:104BD800F89058663AE02378012B34D14FF0000B57
:104BE800D8F8803084F800B01B68996CC1F5205162
:104BF80089B20129A9F800101BD92E4800F07EFCC3
:104C08004FF4205259462B4800F042FE00F0B0F90C
:104C1800ADF8060000F0A6F940B1BAF800302BB1A3
:104C2800BDF80620013B92B29A421CDA2448FEF7EE
:104C3800D5FF4FF420521F492148FFF713FF10B941
:104C4800D8F8803058660120FCF7CAF83760FCF7BE
:104C5800C1F847F23053401B9842BCD96FF00100AD
:104C680003B0BDE8F08F01460F4800F0CFF80F4BB6
:104C78005A68824209D11846A3F800B000F03AF801
:104C88000B4B584683F800B0EAE76FF00400E7E7FB
:104C980000240648048000F02DF8054B1C704FF0E6
:104CA800FF30DDE72800002000800008DC0100203C
:104CB8004F00002078020020003000404E00002005
:104CC80040010020D80100204C00002060B10346BC
:104CD8004FF0000C10B4064C07CC186059609A606D
:104CE80060465DF8044B70474FF0FF3C60467047E4
:104CF80000600008002842D0F0B5034693B001AD2B
:104D0800AC46002759689A6800681E4EACE8070050
:104D1800B36800970393FCF7E7FC04220123CDE96D
:104D2800042303220123694604A8CDE90623FCF7DE
:104D38002DFDC8B90DF12F0424F00F0404F1100360
:104D4800E06195E8070083E807003146D4E90623C7
:104D5800D4E90467C4E9022302202246C4E90067B3
:104D6800FCF740FC044628B1FCF7D2FC4FF0FF30BA
:104D780013B0F0BDFCF7CCFC204613B0F0BD4FF0EB
:104D8800FF30704700600008002210B584B0CDE9FC
:104D980001221D490B68ADF8002003F16043B3F50B
:104DA800004F27D84B6803F17843A3F50043B3F5C8
:104DB800C03F1FD84FF4C03301E0013B1FD003F1BF
:104DC800006202F5E04292F8FF2FFF2AF5D00F3378
:104DD80023F00F01B1F5807F38BF4FF4807101F5E2
:104DE800FF531F33C3F34F34074800F049F8ADF8B9
:104DF800004001906846FFF77DFF04B010BD012414
:104E08004FF48071F0E700BF008000084B1EB3F537
:104E1800C03F01D30020704700F032B80000000006
:104E2800002300B587B00193FCF75EFC0420012144
:104E380004220423CDE9020101A902A8CDE9042333
:104E4800FCF7A4FC90B9042202239FED0B7B01A977
:104E580002A88DED047BCDE90223FCF797FC28B965
:104E6800FCF756FC012007B05DF804FBFCF750FC8A
:104E7800002007B05DF804FB0000000008000000F7
:104E880099B14FF0FF3210B4094C014410F801CB2E
:104E9800D3B283EA0C0354F82330884283EA1222FF
:104EA800F4D1D0435DF8044B70470846704700BF03
:104EB80080590008F8B500231D491E4A08681E4994
:104EC80010601E4A1E4813601E4A0B8013601E495C
:104ED8001E4A03801E4C1F480B6013601E491F4A60
:104EE8001F4D036020462B700B601370FEF746FFC2
:104EF8002046FEF7FFFD012710214FF4006202262D
:104F08000425082023681F621E621D621862196248
:104F18001A62DA69910603D55A6ADA699206FBD4ED
:104F280000230A20C4F89030BDE8F840FBF758BFCA
:104F3800280000206C020020680200206402002083
:104F48006002002084520020805200207C52002001
:104F580040010020785200207402002070020020D6
:104F680088520020014B1868704700BF6402002077
:104F7800014B1888704700BF600200202DE9F84FE8
:104F8800934C2378042B08D8DFE803F00915283F51
:104F980003007E2846D000232370BDE8F88F7E28C2
:104FA800FBD1002301208B498B4A8C4D20702B604C
:104FB8000B601360F1E7874A88491368C8540133C6
:104FC800042B1360E9D142F2F3700B68033B834270
:104FD800E1D80221002321701360DEE77E497F4A71
:104FE8000B681268934206D2B3F5205FD5D27C4D88
:104FF800E85401330B609A42CFD10023032175484E
:10500800784A036021701360C7E7724A75491368CC
:10501800C8540133042B1360BFD1734A0968237045
:105028001160BAE7714D6D4B28461F686C4E3A46C1
:10503800314640F8047B00F057FC6B4BD3F800E096
:105048003B1D00F0EB804FF0FF313B1D284605EB80
:10505800030C674D10F8012BCBB2534055F82330A1
:10506800604583EA1121F5D1C943714540F0DB80E1
:10507800604BB6F80520DFF888811A80D6F803302F
:10508800FA1FC8F8003086D0DFF88491B9F800001C
:105098008718B7F5205F00F25381BFB256493044F4
:1050A80000F022FC012FA9F8007000F2EC8140F218
:1050B8000111524ADFF85C9100231180CE460B2182
:1050C8004F4EC8F804304EF8041B03CEC2F8071040
:1050D80040F67E314B4F9370C2F80300904639601A
:1050E80007CAAEE803002EF8022B120C8EF8002037
:1050F80099F80720DFF820A182F00D0255F8222048
:1051080099F80A0082EA0A0A99F808205FFA8AF1EF
:105118004A4055F8222099F8091082EA1A225FFAC3
:1051280082FE81EA0E0155F821104FF07E0B81EACC
:105138001221CAB2424055F82220012682EA1122E1
:10514800D1B255F821103B7181EA1221CAB255F843
:105158002220DFF8B4C082EA1122D1B255F821101A
:1051680081EA1221CAB255F8222082EA1122D243DA
:10517800B8E80300C7F80500C7F809103A61B8F89D
:10518800002087F814B0A7F80D2098F802208CF8B2
:1051980000B0FA730133142B06F101020CEB06017F
:1051A8000BD0F85C7A2800F05B817E2840F05581AE
:1051B80045F27A5202360A80ECE77E254FF47A737C
:1051C800114992B20CF806501048FEF7FBFBE2E6D4
:1051D800885200207C5200208052002084520020F7
:1051E800782A00205C0200207852002078020020F3
:1051F80080590008600200207F2A00204402002015
:105208005402002018020020F00100204001002074
:1052180068020020300200202F4D7800BEF1000FF8
:1052280000F02381AA4D40F20111AA4ADFF8BC928E
:1052380001261180CE460B21A74F00237E604EF831
:10524800041B03CFC2F8071040F67E31A34F9370BA
:10525800C2F803009046396007CAAEE803002EF88A
:10526800022B120C8EF8002099F80720DFF880A294
:1052780082F00D0255F8222099F80A0082EA0A0AFB
:1052880099F808205FFA8AF14A4055F8222099F8DF
:10529800091082EA1A225FFA82FE81EA0E0155F8A5
:1052A80021104FF07E0B81EA1221CAB2424055F814
:1052B80022203B7182EA1122D1B2714055F82110A7
:1052C800DFF830C281EA1221CAB255F8222082EAF8
:1052D8001122D1B255F8211081EA1221CAB255F82B
:1052E800222082EA1122D243B8E80300C7F8050059
:1052F800C7F809103A61B8F8002087F814B0A7F881
:105308000D2098F802208CF800B0FA730133142BA2
:1053180006F101020CEB06013FF44FAFF85C7A2866
:1053280009D07E2804D145F27A5202360A80EDE788
:1053380016460870EAE74AF67A2202360A80E5E756
:10534800DFF8A891012640F20113CE460B21614AED
:10535800614F1380C8F8046000234EF8041B03CF84
:10536800C2F8071040F67E315C4F9370C2F8030014
:105378009046396007CAAEE803002EF8022B120CDB
:105388008EF8002099F80720DFF864A182F00D025A
:1053980055F8222099F8081082EA0A0A5FFA8AF278
:1053A8004A4055F8222099F809E082EA1A22D1B237
:1053B80081EA0E0155F8211099F80A0081EA1221B4
:1053C800CAB2424055F822204FF07E0B82EA1122E1
:1053D800D1B2714055F821103B7181EA1221CAB24D
:1053E80055F82220DFF80CC182EA1122D1B255F813
:1053F800211081EA1221CAB255F8222082EA11222C
:10540800D243B8E80300C7F80500C7F809103A61A5
:10541800B8F8002087F814B0A7F80D2098F80220F3
:105428008CF800B0FA730133142B06F101020CEB6F
:1054380006013FF4C2AEF85C7A2809D07E2804D170
:1054480045F27A5202360A80EDE716460870EAE716
:105458004AF67A2202360A80E5E71646087099E687
:105468004AF67A2202360A8094E61D4BB6F80520E1
:10547800DFF864801A80D6F803306FF00A02144D02
:10548800C8F8003000E6DFF870A07F083A461549F2
:10549800DAF8000000F044F9134A136803EB4703F5
:1054A8001360DAF8003003EB4703CAF80030B9F8A4
:1054B800003013F0010207D0334413F8013C337075
:1054C8000123A9F80030F2E5A9F80020EFE500BFB4
:1054D80080590008440200205402002018020020CD
:1054E80060020020782A0020640200203002002098
:1054F8002F4D7800F00100206C020020002900F0F8
:105508008B802DE9F0470446444E084432782378CE
:10551800451E002A65D17E2B05D0A54254D014F82B
:10552800013F7E2BF9D101220027DFF800813C4999
:105538003C48A5420B703270C8F80020077043D071
:1055480014F8013F501C7E2BC8F800008B540ED075
:10555800A54239D0024614F8013FB2F5205F38D28F
:105568002F49501C7E2BC8F800008B54F0D10C2812
:10557800EED901234FF0000C0F78DFF8AC90984279
:1055880009F80C700CF1010C0DD9CF5C03F1010E78
:105598009A421CD97A2F29D009F80C700CF1010C09
:1055A80073469842F1D8BCF1000F07D01E4FE14472
:1055B80017F8010BFFF7E2FC4F45F9D10023A5428C
:1055C8003370C8F80030AAD10020BDE8F0877346D0
:1055D800D5E7002333704FF0FF30C8F80030BDE83E
:1055E800F087DFF84880D8F80020B6E711F80EA059
:1055F800BAF1550F0ED0BAF1AA0FD1D109F80C7033
:105608009F1CB8420CF1010CCDD903F1030E3B46A7
:10561800CF5DBDE77E27F1E70020704770020020CC
:105628007802002088520020782A00207402002086
:1056380000F17843B3F5003F65D2354B2DE9F047CB
:10564800174600EB42029A424FD80D4600264FF00B
:10565800FF39DFF8C4802F4CA0EB010A37E02A8815
:10566800731C9F42228042DD6A88B31C9F4262807D
:105678003DDDAA88F31C9F42A2803EDDEA88331DE7
:105688009F42E28039DD2A89731D9F422281D4E935
:10569800000239DD6B896381B31D9F4234DDAB891C
:1056A800A381F31D9F42C4BFEB89E381D4E9023C87
:1056B800C8E9000242460220C8E9023CFBF792FF13
:1056C80098B90836B3B29F4205F110050DD9B74213
:1056D800C4E90099C4E9029905EB0A01BFDC4FF05F
:1056E800FF339C4618461A46E2E7BDE8F0874FF0BC
:1056F800FF32206813469446DAE74FF0FF33D4E9C7
:1057080000029C46D4E770474FF0FF3CA368CFE700
:10571800000002088C720020A07200200000000027
:10572800002900F0AC802DE9F04F2DED028B1646D4
:1057380089B042B110F00F0F834604D100F17845CB
:10574800B5F5003F04D309B0BDEC028BBDE8F08F7E
:105758008A4672B6FBF7C8FF6B0BC5F34B05C5F558
:105768008054A4B2B44228BF34469FED458B464AC4
:1057780002F50058C2EB4337434AD11901F10061E1
:10578800096842F8041B4245F7D13F49002201EB62
:1057980045094FF6FF7E494603E01FFA8CF2944212
:1057A80007D031F8020B02F1010C7045F5D0944294
:1057B8001BD82246514658460193FFF739FFA642A7
:1057C800019B07F5005752D0361BB6B2B6F5805F7D
:1057D8000AEB440A0BEB440B4FF00005344603F187
:1057E800010328BF4FF48054C6E700220392012228
:1057F8008DED048B4FF41E0106930193234B079202
:10580800D3F8002104A842F08042C3F80021D3F85D
:10581800042142F00042C3F80421196303A9FBF7ED
:10582800B5FF019B18BB4FF40052FF2116480193A6
:1058380000F02EF85246019B0AEB440002E0B5F551
:10584800805F06D032F8021B0135824229F8021B1C
:10585800F5D158034FF480520B4900F100600193D1
:10586800FFF7E6FEA642019B07F50057ACD1FBF710
:105878004FFF62B609B0BDEC028BBDE8F08F7047F0
:1058880004000000010000008C52002000200240AB
:1058980002440346934200D1704703F8011BF9E71D
:1058A80070B50D4D00260D4C641BA410A64209D1FD
:1058B8000B4D00260B4C00F025F8641BA410A642E3
:1058C80005D170BD55F8043B01369847EEE755F809
:1058D800043B01369847F2E7885D0008885D0008B8
:1058E800885D00088C5D00080A44431E914200D17F
:1058F800704710B511F8014B914203F8014FF9D1E7
:1059080010BD0000F8B500BFF8BC08BC9E46704743
:0C591800F8B500BFF8BC08BC9E46704704
:10592400757064617465206D6F64650A0000000021
:1059340072756E206D6F64650A000000000000003F
:10594400010203040000000000000000010203043F
:1059540006070809010002000400060008000A0006
:105964000C00100020004000800000010804020424
:10597400080101010101010307010000000000000A
:10598400963007772C610EEEBA51099919C46D0748
:105994008FF46A7035A563E9A395649E3288DB0EA3
:1059A400A4B8DC791EE9D5E088D9D2972B4CB60986
:1059B400BD7CB17E072DB8E7911DBF906410B71D63
:1059C400F220B06A4871B9F3DE41BE847DD4DA1A9C
:1059D400EBE4DD6D51B5D4F4C785D38356986C13CD
:1059E400C0A86B647AF962FDECC9658A4F5C011446
:1059F400D96C0663633D0FFAF50D088DC8206E3B24
:105A04005E10694CE44160D5727167A2D1E4033C35
:105A140047D4044BFD850DD26BB50AA5FAA8B5355C
:105A24006C98B242D6C9BBDB40F9BCACE36CD8324B
:105A3400755CDF45CF0DD6DC593DD1ABAC30D926F2
:105A44003A00DE518051D7C81661D0BFB5F4B421F5
:105A540023C4B3569995BACF0FA5BDB89EB80228F2
:105A64000888055FB2D90CC624E90BB1877C6F2F77
:105A7400114C6858AB1D61C13D2D66B69041DC7672
:105A84000671DB01BC20D2982A10D5EF8985B1714B
:105A94001FB5B606A5E4BF9F33D4B8E8A2C90778FA
:105AA40034F9000F8EA8099618980EE1BB0D6A7F91
:105AB4002D3D6D08976C6491015C63E6F4516B6B4A
:105AC40062616C1CD83065854E0062F2ED95066CFF
