:020000040800F2
:1000000000800020890E0008B90800085109000886
:10001000790900088109000889090008000000002A
:10002000000000000000000000000000910900082E
:100030009F09000800000000AD090008BB09000886
:10004000D90E0008D90E0008D90E000800000000E3
:10005000D90E0008D90E0008D90E000800000000D3
:10006000D90E0008D90E000800000000D90E0008C3
:10007000D90E0008D90E0008D90E0008D90E0008C4
:10008000D90E0008D90E0008D90E0008D90E0008B4
:10009000D90E0008D90E0008D90E0008D90E0008A4
:1000A000D90E0008D90E0008D90E0008C9090008A9
:1000B000DD090008D90E0008D90E0008D90E000885
:1000C000D90E0008D90E0008D90E0008D90E000874
:1000D00000000000D90E0008D90E0008D90E000853
:1000E000D90E0008D90E0008D90E0008D90E000854
:1000F000D90E0008D90E0008D90E00080000000033
:1001000000000000D90E0008D90E0008D90E000822
:10011000D90E0008D90E0008D90E0008D90E000823
:10012000D90E0008D90E0008F1090008D90E000800
:10013000D90E00080000000000000000D90E0008E1
:10014000D90E0008000000000000000000000000C0
:100150000000000000000000D90E000800000000B0
:100160000000000000000000D90E0008D90E0008B1
:10017000000000000000000000000000000000007F
:10018000000000000000000000000000000000006F
:10019000000000000000000000000000000000005F
:1001A0000000000000000000D90E0008D90E000871
:1001B000D90E0008D90E0008D90E0008D90E000883
:1001C000D90E0008D90E0008000000000000000051
:1001D000000000000000000000000000D90E000830
:1001E000D90E000800000000000000000000000020
:1001F00000000000000000000000000000000000FF
:1002000000000000D90E0008D90E00080000000010
:1002100000000000D90E00080000000000000000EF
:10022000000000000000000000000000D90E0008DF
:10023000D90E0008000000000000000000000000CF
:10024000000000000000000000000000D90E0008BF
:08025000D90E0008D90E0008C8
:1002580010B5054C237833B9044B13B10448AFF3F8
:1002680000800123237010BD300000200000000032
:100278005091000808B5034B1BB103490348AFF37D
:10028800008008BD000000003400002050910008E4
:1002980010F8012B11F8013B012A28BF9A42F7D028
:1002A800D01A7047034613F8012B002AFBD1181AFD
:1002B8000138704753B94AB9002908BF00281CBF44
:1002C8004FF0FF314FF0FF3000F0B0B9ADF1080C3E
:1002D8006DE904CE00F006F8DDF804E0DDE902235C
:1002E80004B070472DE9F04F099D884604468E46B4
:1002F800002B4AD18A4217465FD9B2FA82F64EB12C
:10030800C6F1200301FA06FEB740B44020FA03F311
:1003180043EA0E0E4FEA17481FFA87FC230CBEFB70
:10032800F8F108FB11EE01FB0CF243EA0E439A4286
:1003380007D9FB1801F1FF3002D29A4200F254812A
:1003480001469B1AA2B2B3FBF8F008FB103300FB7E
:100358000CFC42EA034294450BD9BA1800F1FF336A
:100368002CBF01240024944502D9002C00F03F81C1
:10037800184640EA0140A2EB0C0200211DB1F240F0
:100388000023C5E90023BDE8F08F8B4205D90DB1E4
:10039800C5E9000100210846F5E7B3FA83F1002911
:1003A8004ED14345C0F01281824240F20F81084687
:1003B800002DE8D0C5E9004EE5E7002A00F0AC8042
:1003C800B2FA82F6002E40F0BB808B1A4FEA124E2A
:1003D800BCB20121020C80B2B3FBFEFC0EFB1C3345
:1003E80042EA034304FB0CF29A420ED9FB180CF1C3
:1003F800FF382CBF4FF001094FF000099A4203D98A
:10040800B9F1000F00F0EC80C4469B1AB3FBFEF86C
:100418000EFB183304FB08F440EA034294420BD95C
:10042800BA1808F1FF332CBF01200020944202D9EA
:10043800002800F0D1809846121B48EA0C409DE73E
:10044800C1F120068B4008FA01F400FA01F922FAFA
:1004580006F728FA06F88A401F4320FA06F3380CF4
:1004680023431FFA87FC1C0CB8FBF0FE00FB1E8818
:1004780044EA08440EFB0CF8A0450ED93C190EF1CD
:10048800FF3A2CBF4FF0010B4FF0000BA04503D9EA
:10049800BBF1000F00F0B880D646A4EB08041FFAA1
:1004A80083F8B4FBF0F300FB134403FB0CFC48EAAD
:1004B8000444A4450ED93C1903F1FF302CBF4FF07A
:1004C80001084FF00008A44503D9B8F1000F00F067
:1004D8009F80034643EA0E40A4EB0C04A0FB02EC09
:1004E80064457346E04602D307D1F14505D2BEEB19
:1004F80002036CEB070C0138E0465DB1B9EB03026F
:1005080064EB080404FA06F622FA01F3CC401E4311
:10051800C5E90064002136E7B1FBF2FC010C144682
:1005280080B2964641EA08412026904640EA0143B7
:100538001046B1FBF2F1A3EB080341EA0C414BE78B
:10054800B740C6F1200301FA06F221FA03F84FEA90
:10055800174E20FA03F3BCB2B0401343020C190C37
:1005680080B2B8FBFEF90EFB198841EA084109FB85
:1005780004F8884551D9791809F1FF3C2CBF4FF090
:10058800010A4FF0000A884502D9BAF1000F31D0AC
:10059800A1EB0801B1FBFEF909FB04F80EFB1911E8
:1005A8009BB243EA0143434535D2FB1809F1FF31B9
:1005B8002CBF4FF0010A4FF0000A4345BBD2BAF1F5
:1005C800000FB8D1A9F102013B44B4E7841A68EBE3
:1005D800030201209646EBE63A44A8F102082BE70D
:1005E800ACF1020C3B4410E702393B44A9E63A441B
:1005F8000238BEE6A7EB0808A9F1020C4144B1FB9A
:10060800FEF909FB04F8C9E7AEF1020E3C4444E7E1
:10061800023B3C445EE749468DE7A1EB0801CC4626
:10062800B1FBFEF909FB04F8B8E700BF704700BF4B
:1006380080B582B000AF114BD3F888300F4A43F031
:100648000103C2F888300D4BD3F8883003F001035A
:100658007B607B68002200211B2000F03DFE1B20F0
:1006680000F054FE002200211C2000F035FE1C2062
:1006780000F04CFE00BF0837BD4680BD000C0244A8
:1006880080B483B000AF124BD3F88C30104A43F0DB
:100698008003C2F88C300E4BD3F88C3003F0800303
:1006A8007B607B680A4BD3F88C30094A43F001031E
:1006B800C2F88C30064BD3F88C3003F001033B6052
:1006C8003B6800BF0C37BD465DF8047B704700BF30
:1006D800000C024480B500AF00F0FCFB00F052F8BB
:1006E800FFF7CEFFFFF7A4FF00F0FAF907F03FFC91
:1006F800002007F019FC07F029FC03464EF6EE62CD
:10070800934225D04EF6EE62934235DC4DF6DD522B
:10071800934233D04DF6DD5293422DDC4CF6CC4259
:10072800934223D04CF6CC42934225DC002B0CD0CC
:1007380045F65A2293421FD107F020FC0346002BAE
:100748001ED0002007F0F0FB1AE007F087FC18E045
:1007580007F018FD0346002B04D145F65A2007F090
:10076800E3FB0EE0002007F0DFFB0AE007F01EFEC7
:10077800002007F0D9FB04E000BFBCE700BFBAE7E0
:1007880000BFB8E780B59CB000AF07F12003502246
:100798000021184608F09EFC07F1080300221A60A1
:1007A8005A609A60DA601A615A612D4B1B6923F00E
:1007B80030032B4A43F020031361294B1B6903F0D4
:1007C80030037B607B6800BF254B5B6903F008033F
:1007D800082BF9D101233B624FF480337B6202235B
:1007E800BB640323FB6406233B6564237B65022308
:1007F800BB650223FB6502233B6608237B66002357
:10080800BB660023FB6607F12003184601F09CFF36
:100818000346002B01D000F027F81F23BB600323F9
:10082800FB6008233B6100237B610023BB6100233D
:10083800FB6107F108030521184602F0BDFB0346DA
:10084800002B01D000F010F8064B1B6823F0300392
:10085800044A43F02003136000BF7037BD4680BDD3
:10086800000802440020024080B400AF72B600BF06
:1008780000BFFDE780B400AF00BFBD465DF8047B54
:100888007047000080B400AFBFF34F8F00BF064B26
:10089800DB6803F4E0620449044B1343CB60BFF305
:1008A8004F8F00BF00BFFDE700ED00E00400FA0530
:1008B80080B582B000AF00237B60204B5B6D03F4F2
:1008C8008063B3F5806F07D101237B601B4B4FF426
:1008D80080629A65FFF7D6FF194BD3F80431002BD5
:1008E8000FDA03237B60164BD3F808319BB23B60C9
:1008F800134BD3F80431124A43F00043C2F80431D1
:100908003B68104B5B6803F00803002B0DD00D4BC0
:100918009B6803F00203002B07D004237B60094B7C
:100928005B69084A43F0020353617B68002B02D1DC
:1009380063237B6000BF00BFFDE700BF000C0244DB
:10094800002002400060024080B485B000AF074B31
:100958009B6AFB60054BDB6ABB60044B5B6B7B608F
:10096800024B9B6B3B6000BFFDE700BF00ED00E062
:1009780080B400AF00BFFDE780B400AF00BFFDE763
:1009880080B400AF00BFFDE780B400AF00BFBD4634
:100998005DF8047B704780B400AF00BFBD465DF8CA
:1009A800047B704780B400AF00BFBD465DF8047B90
:1009B800704780B500AF00F06FFB00BF80BD00003E
:1009C80080B500AF024800F09CFF00BF80BD00BFAB
:1009D8005801002080B500AF024800F092FF00BF28
:1009E80080BD00BFE000002080B500AF024805F0E0
:1009F80073F900BF80BD00BF4C00002080B483B0F5
:100A080000AF304BD3F888302E4A43F47003C2F855
:100A180088302D4B01221A602B4B0022DA612A4BB9
:100A280000221A62284B1A682749284B13400B608A
:100A3800254B00229A62244B0022DA62224B244A78
:100A48005A63214B00229A631F4B214ADA631E4BDB
:100A580000221A641C4B1B681B4A23F48023136072
:100A6800194B00221A65174B4FF000629A60194B18
:100A78009B6903F060437B607B68B3F1604F03D0F0
:100A88007B68B3F1404F17D1124BDB6903F00103C8
:100A9800002B05D00F4B104ADA600E4B0F4ADA6074
:100AA8000C4BDB690B4A43F00203D361094BDB694A
:100AB800084A43F00103D36100BF0C37BD465DF817
:100AC800047B704700ED00E0000C0244E3EAE2FA20
:100AD80080020101002002403B2A19087F6E5D4C0C
:100AE80080B500AF234B244A1A60224B4FF4E13201
:100AF8005A60204B00229A601E4B0022DA601D4B80
:100B080000221A611B4B0C225A611A4B00229A616F
:100B1800184B0022DA61174B00221A62154B00228B
:100B28005A62144B00229A62124804F059FE034696
:100B3800002B01D0FFF798FE4FF080410D4806F0DA
:100B48008AFE0346002B01D0FFF78EFE4FF080612E
:100B5800084806F0BEFE0346002B01D0FFF784FECE
:100B6800044806F03DFE0346002B01D0FFF77CFE4B
:100B780000BF80BD4C0000200038014080B5ACB0FB
:100B880000AF786007F19C0300221A605A609A60EF
:100B9800DA601A6107F1100388220021184608F06C
:100BA80099FA7B681B68784A934240F0E9804FF0D5
:100BB80001024FF00003C7E904230323BB610623A6
:100BC800FB6124233B6202237B620223BB62022374
:100BD800FB6208233B6300237B630023BB634FF462
:100BE8000033FB6301237B6407F11003184602F00E
:100BF80025FD0346002B01D0FFF736FE634BD3F8E3
:100C0800A430624A43F48043C2F8A4305F4BD3F85F
:100C1800A43003F48043FB60FB685C4BD3F88C3052
:100C28005A4A43F00103C2F88C30584BD3F88C3041
:100C380003F00103BB60BB680623C7F89C3002239E
:100C4800C7F8A0300023C7F8A4300023C7F8A8309D
:100C58000823C7F8AC3007F19C0319464C4801F04B
:100C680059FB4C4B4C4A1A604A4B16225A60494B66
:100C780000229A60474B4FF48062DA60454B0822A5
:100C88001A61444B00225A61424B00229A61414B3F
:100C98000022DA613F4B4FF400021A623D4B0122F9
:100CA8005A623C4B01229A623A4B0022DA62394B73
:100CB80000221A63374B00225A63364800F0F2FBD1
:100CC8000346002B01D0FFF7CFFD7B68314ADA6776
:100CD800304A7B68D36510212E4800F07FFF034619
:100CE800002B01D0FFF7C0FD2C4B2D4A1A602B4B6F
:100CF80015225A60294B00229A60284B0022DA609C
:100D0800264B00221A61254B4FF400225A61234BCF
:100D180000229A61214B0022DA61204B4FF44002F5
:100D28001A621E4B01225A621C4B01229A621B4B0B
:100D38000022DA62194B00221A63184B00225A6308
:100D4800164800F0AFFB0346002B01D0FFF78CFDDF
:100D58007B68124AC3F88020104A7B68D36510214B
:100D68000E4800F03BFF0346002B01D0FFF77CFD47
:100D7800002200213A2000F0AFFA3A2000F0C6FA2B
:100D880000BFB037BD4680BD00380140000C0244AA
:100D980000000242E0000020D0000240580100207C
:100DA8005000024080B582B000AF78607B681B6855
:100DB800104A934219D1104BD3F8A4300E4A23F4A9
:100DC8008043C2F8A43006210C4801F001FC7B687E
:100DD800DB6F184600F032FC7B68D3F88030184689
:100DE80000F02CFC3A2000F09FFA00BF0837BD46FF
:100DF80080BD00BF00380140000C024400000242E0
:100E080080B584B000AF78600B467B807B681B6838
:100E1800164A934227D1164B1B78002B10D07B68BB
:100E28001B6810221A627B681B6808221A627B689A
:100E38001B6804221A627B681B6802221A6212E08D
:100E4800786806F0F4FEF860FB68022B06D17B6830
:100E58001B6810221A62074B01221A708022064969
:100E6800064806F085FE1037BD4680BD00380140B3
:100E7800D1010020D0010020E00100204C0000201A
:100E8800DFF834D0002103E00C4B5B5843500431A9
:100E98000B480C4B42189A42F6D30B4A02E0002347
:100EA80042F8043B094B9A42F9D3FFF7A7FD08F033
:100EB80019F9FFF70FFCFEE700800020F4980008FE
:100EC800000000202C0000203000002010630020CB
:100ED800FEE7000080B500AF032000F0F2F902F051
:100EE80023FA02460C4B1B6A03F00F030B49CB5C39
:100EF80022FA03F30A4A1360042000F045FA0F208F
:100F080000F054F80346002B01D0012302E0FFF75C
:100F1800B1FC0023184680BD000C0244A4940008CC
:100F28000000002080B500AF154B164A5A67144BD5
:100F3800154A9A67124B00225A67114B00229A678A
:100F48000F4B124ADA670E4B0022DA670C4B104A35
:100F5800C3F880200A4B0022C3F88020084B0D4AB2
:100F68001A66074B00221A66054B0B4A5A66044B51
:100F780000225A6600F012F80023184680BD00BF10
:100F8800000C0244FFC1FEDF2B06804000787F0181
:100F9800E008100003D00A01FF1D1F0080B400AF55
:100FA80000BFBD465DF8047B7047000080B584B083
:100FB80000AF78600023FB60334B1B78002B01D116
:100FC80001235CE0314B1B6803F00403042B0CD1B4
:100FD8002F4B1A682C4B1B7819464FF47A73B3FBC6
:100FE800F1F3B2FBF3F3FB6037E000F025FAB860E9
:100FF800BB68022B23D0BB68022B2DD8BB68002B03
:1010080003D0BB68012B0DD026E0214B1A681E4B7C
:101018001B7819464FF4FA53B3FBF1F3B2FBF3F321
:10102800FB601AE0184B1B781A464FF47A73B3FB2F
:10103800F2F34FF4FA42B2FBF3F3FB600DE0124B0C
:101048001B781A464FF47A73B3FBF2F34FF400425D
:10105800B2FBF3F3FB6000E000BFF86800F072F940
:101068000346002B01D0012309E0002279684FF0E4
:10107800FF3000F031F9074A7B68136000231846F7
:101088001037BD4680BD00BF0800002010E000E01A
:10109800000000200400002080B400AF064B1B783D
:1010A8001A46064B1B681344044A136000BFBD462A
:1010B8005DF8047B704700BF08000020D4010020C1
:1010C80080B400AF034B1B681846BD465DF8047B2F
:1010D800704700BFD401002080B584B000AF7860AD
:1010E800FFF7EEFFB8607B68FB60FB68B3F1FF3F7A
:1010F80005D00A4B1B781A46FB681344FB6000BFF7
:10110800FFF7DEFF0246BB68D31AFA689A42F7D89F
:1011180000BF00BF1037BD4680BD00BF08000020DB
:1011280080B485B000AF78607B6803F00703FB608C
:101138000C4BDB68BB60BA684FF6FF031340BB601B
:10114800FB681A02BB68134343F0BF6343F40033E0
:10115800BB60044ABB68D36000BF1437BD465DF866
:10116800047B704700ED00E080B400AF044BDB68FF
:101178001B0A03F007031846BD465DF8047B704759
:1011880000ED00E080B483B000AF0346FB80B7F900
:101198000630002B0BDBFB8803F01F020749B7F969
:1011A80006305B09012000FA02F241F8232000BF53
:1011B8000C37BD465DF8047B704700BF00E100E0D6
:1011C80080B483B000AF0346FB80B7F90630002B2C
:1011D80012DBFB8803F01F020A49B7F906305B09E6
:1011E800012000FA02F2203341F82320BFF34F8F89
:1011F80000BFBFF36F8F00BF00BF0C37BD465DF85F
:10120800047B704700E100E080B483B000AF034680
:101218003960FB80B7F90630002B0ADB3B68DAB28D
:101228000C49B7F906301201D2B20B4483F80023F7
:101238000AE03B68DAB20849FB8803F00F03043B75
:101248001201D2B20B441A7600BF0C37BD465DF8C6
:10125800047B704700E100E000ED00E080B489B055
:1012680000AFF860B9607A60FB6803F00703FB61C0
:10127800FB69C3F10703042B28BF0423BB61FB6987
:101288000433062B02D9FB69033B00E000237B6192
:101298004FF0FF32BB6902FA03F3DA43BB681A4026
:1012A8007B699A404FF0FF317B6901FA03F3D94318
:1012B8007B680B40134318462437BD465DF8047B12
:1012C800704780B582B000AF78607868FFF728FF74
:1012D80000BF0837BD4680BD80B586B000AF034665
:1012E800B9607A60FB81FFF73FFF78617A68B96877
:1012F8007869FFF7B3FF0246B7F90E301146184672
:10130800FFF782FF00BF1837BD4680BD80B582B0A9
:1013180000AF0346FB80B7F906301846FFF732FFE7
:1013280000BF0837BD4680BD80B582B000AF034618
:10133800FB80B7F906301846FFF742FF00BF0837B1
:10134800BD4680BD80B483B000AF78607B68013B48
:10135800B3F1807F01D301230DE00A4A7B68013B8A
:101368005360084B00229A60064B1B68054A43F0FD
:1013780003031360002318460C37BD465DF8047B51
:10138800704700BF10E000E080B483B000AF786021
:101398007B68042B44D801A252F823F0C713000835
:1013A800E51300080714000829140008B9130008F9
:1013B8001F4B1B681E4A43F00403136031E01C4BAB
:1013C8001B681B4A23F0040313601A4BD3F8E4305C
:1013D800184A23F00C03C2F8E43022E0144B1B68CF
:1013E800134A23F004031360124BD3F8E43023F0BC
:1013F8000C03104A43F00403C2F8E43011E00C4B2C
:101408001B680B4A23F0040313600A4BD3F8E4303B
:1014180023F00C03074A43F00803C2F8E43000E065
:1014280000BF00BF0C37BD465DF8047B704700BFA6
:1014380010E000E0000C024480B483B000AF174B0A
:101448001B6803F00403002B02D004237B601EE01A
:10145800134BD3F8E43003F00C033B603B68082BD4
:101468000FD03B68082B0FD83B68002B03D03B6894
:10147800042B03D008E000237B6008E001237B6095
:1014880005E002237B6002E000237B6000BF7B68ED
:1014980018460C37BD465DF8047B704710E000E045
:1014A800000C024480B584B000AF7860FFF708FEF6
:1014B800F8607B68002B01D101239AE07B681B68E8
:1014C8004E4A934249D07B681B684D4A934244D0A8
:1014D8007B681B684B4A93423FD07B681B684A4A2B
:1014E80093423AD07B681B68484A934235D07B6860
:1014F8001B68474A934230D07B681B68454A934231
:101508002BD07B681B68444A934226D07B681B68B3
:10151800424A934221D07B681B68414A93421CD0BF
:101528007B681B683F4A934217D07B681B683E4A1A
:10153800934212D07B681B683C4A93420DD07B686B
:101548001B683B4A934208D07B681B68394A934220
:1015580003D07B681B68384A93427B68002283F873
:101568004C207B6893F85430DBB2002B0ED17B689B
:1015780000221A667B6800225A667B6800229A66F7
:101588007B680022DA667B6800221A677B68022281
:1015980083F854207B681B685A697B681B6842F093
:1015A80006025A610FE0FFF78BFD0246FB68D31A6B
:1015B800052B08D97B6810229A657B68032283F87B
:1015C8005420012315E07B681B685B6903F0010365
:1015D800002BE8D1786800F03DFB7B685A6B7B688C
:1015E8001A657B6800229A657B68012283F854207B
:1015F800002318461037BD4680BD00BF500002408A
:10160800D000024050010240D00102405002024086
:10161800D002024050030240D00302405010024062
:10162800D010024050110240D01102405012024026
:10163800D012024050130240D013024080B584B04B
:1016480000AF7860FFF73CFDF8607B68002B01D1A4
:101658000123A5E07B681B6823F47F6323F00F0355
:10166800BB607B681B685A697B681B6842F006028E
:101678005A610FE0FFF724FD0246FB68D31A052BD9
:1016880008D97B6810229A657B68032283F8542066
:10169800012385E07B681B685B6903F00103002B6D
:1016A800E8D17B681B6800221A607B681B680022EF
:1016B8005A617B681B6800221A647B681B680022D9
:1016C8005A647B681B6800229A647B681B68002246
:1016D800DA647B681B6800221A657B681B68002235
:1016E800DA677B681B68304A93420ED07B681B68B8
:1016F8002E4A934209D07B681B682D4A934204D036
:101708007B681B682B4A934201D1012300E0002328
:10171800002B07D07B681B6800225A657B681B6812
:1017280000229A65BB685A687B681B68C3F30B0381
:10173800503BDB0903F01F03012101FA03F3DB43EC
:101748001A40BB685A607B681B684FF4FE42DA6037
:101758007B6800221A667B6800225A667B68002232
:101768009A667B680022DA667B6800221A677B68C3
:1017780000225A677B68DB6D002B02D07B68002251
:10178800DA657B6800221A657B6800229A657B68A7
:10179800002283F854207B68002283F84C20002321
:1017A80018461037BD4680BD50030240D0030240A2
:1017B80050130240D013024080B584B000AF786067
:1017C800FFF77EFCF8607B68002B01D101236BE0FA
:1017D8007B6893F85430DBB2022B08D07B68202258
:1017E8009A657B68002283F84C2001235CE07B68C3
:1017F8001B685A697B681B6842F004025A617B685F
:10180800052283F8542020E0FFF75AFC0246FB68C3
:10181800D31A052B19D97B689B6D43F010027B689E
:101828009A657B68032283F854207B681B6D03F05C
:101838008003002B03D07B685B6F01221A737B68DF
:10184800002283F84C2001232EE07B681B681B696B
:1018580003F40053002BD7D07B681B685A697B6858
:101868001B6842F002025A617B68042283F8542004
:101878007B681B684FF4FE42DA607B68012283F8BC
:1018880054207B681B6D03F08003002B07D07B6816
:101898005B6F01221A737B681B6800229A647B685D
:1018A800002283F84C20002318461037BD4680BD1F
:1018B80080B483B000AF78607B68002B01D101232E
:1018C80019E07B6893F85430DBB2022B04D07B68B4
:1018D80020229A6501230EE07B68042283F85420B5
:1018E8007B681B685B697A68126843F4005343F0AD
:1018F80004035361002318460C37BD465DF8047B8A
:10190800704780B586B000AF78607B681B6823F4A9
:101918007F6323F00F037B617B681B68C3F30B03B2
:10192800503BDB0903F01F03012202FA03F33B617A
:101938007B69DB683A691340FB60FB68002B00F0A9
:101948003B817B681B681B6903F48063002B11D003
:101958007B681B685B6903F48063002B0AD07B6893
:101968001B684FF48062DA607B689B6D43F001026C
:101978007B689A657B681B681B6903F40063002B0E
:1019880011D07B681B685B6903F40063002B0AD0E5
:101998007B681B684FF40062DA607B689B6D43F0DC
:1019A80002027B689A657B681B681B6903F4805395
:1019B800002B11D07B681B685B6903F48053002BF4
:1019C8000AD07B681B684FF48052DA607B689B6D95
:1019D80043F004027B689A657B681B681B6903F403
:1019E8008043002B11D07B681B685B6903F480433C
:1019F800002B0AD07B681B684FF48042DA607B6852
:101A08009B6D43F008027B689A657B681B681B69BD
:101A180003F40073002B13D07B681B685B6903F425
:101A28000073002B0CD07B681B684FF40072DA60DF
:101A38007B685B6E002B03D07B685B6E7868984789
:101A48007B681B681B6903F40053002B4CD07B6830
:101A58001B685B6903F40053002B45D07B681B6847
:101A68004FF40052DA607B6893F85430DBB2042BF1
:101A78002ED17B681B685A697B681B6822F4005268
:101A88005A617B681B685A697B681B6842F00202CE
:101A98005A617B68012283F854207B681B6D03F030
:101AA8008003002B07D07B685B6F01221A737B6869
:101AB8001B6800229A647B68002283F84C207B68AC
:101AC800DB6E002B7AD07B68DB6E7868984775E010
:101AD8007B68052283F854207B681B6F002B03D09A
:101AE8007B681B6F786898477B681B681B6903F4E1
:101AF8008073002B39D07B681B685B6903F48073A3
:101B0800002B32D07B681B6D03F08003002B12D0B2
:101B18007B681B68DB6F002B16D17B681B689B6C8E
:101B2800002B11D17B68012283F854207B685B6FFE
:101B380001221A7308E07B681B689B6C002B03D199
:101B48007B68012283F854207B681B684FF440723D
:101B5800DA607B68002283F84C207B681B6E002BC0
:101B680003D07B681B6E786898477B689B6D002B59
:101B780025D07B681B685A697B681B6842F00202A3
:101B88005A617B68012283F854207B681B6D03F03F
:101B98008003002B03D07B685B6F01221A737B687C
:101BA800002283F84C207B689B6E002B07D07B6853
:101BB8009B6E7868984702E000BF00E000BF1837C6
:101BC800BD4680BD80B483B000AF78607B689B6DF4
:101BD80018460C37BD465DF8047B704780B485B065
:101BE80000AF786039607B68002B01D101232BE0BE
:101BF8007B681B6823F47F6323F00F03FB607B681B
:101C08001B68C3F30B03503BDB0903F01F030122DE
:101C180002FA03F3BB603B6803F01003002B12D0F9
:101C28003B6803F01103112B06D1FB685A68BB68A7
:101C38001A43FB685A6006E0FB685A68BB68DB43D6
:101C48001A40FB685A60002318461437BD465DF8F1
:101C5800047B704780B485B000AF78607B681B6AEE
:101C6800FB607B681B685B6923F443017B681B6826
:101C7800FA680A435A617B685A697B68DB691A43C8
:101C88007B681B691A437B689B691343FB607B680D
:101C98001B68824A93424AD07B681B68804A9342F9
:101CA80045D07B681B687F4A934240D07B681B689D
:101CB8007D4A93423BD07B681B687C4A934236D06E
:101CC8007B681B687A4A934231D07B681B68794AE3
:101CD80093422CD07B681B68774A934227D07B6855
:101CE8001B68764A934222D07B681B68744A9342E9
:101CF8001DD07B681B68734A934218D07B681B68A9
:101D0800714A934213D07B681B68704A93420ED085
:101D18007B681B686E4A934209D07B681B686D4AD2
:101D2800934204D07B681B686B4A934201D101231C
:101D380000E00023002B12D07B68DA6A7B689B6A7C
:101D4800013B1B0503F07C731A437B685B6A013B0C
:101D58001B0103F47C731343FA681343FB607B682D
:101D68001B68FA681A647B689A687B685B68DBB2F0
:101D78001A437B681B6B1343FB607B68DB68B3F516
:101D8800806F59D17B681B68444A93424AD07B686C
:101D98001B68434A934245D07B681B68414A93427B
:101DA80040D07B681B68404A93423BD07B681B68E5
:101DB8003E4A934236D07B681B683D4A934231D0F5
:101DC8007B681B683B4A93422CD07B681B683A4A65
:101DD800934227D07B681B68384A934222D07B689D
:101DE8001B68374A93421DD07B681B68354A93426B
:101DF80018D07B681B68344A934213D07B681B68F1
:101E0800324A93420ED07B681B68314A934209D00C
:101E18007B681B682F4A934204D07B681B682E4A54
:101E2800934201D1012300E00023002B0DD0FB6871
:101E380043F48063FB6008E07B68DB68B3F5007FF0
:101E480003D1FB6843F40073FB607B685B6BFA6843
:101E58001343FB607B681B685A6C204B13407A68FD
:101E68001268F9680B4353647B681B6800229A6404
:101E78007B681B680F4A93420ED07B681B680E4A2A
:101E8800934209D07B681B68124A934204D07B684E
:101E98001B68114A934223D1012322E050000240DB
:101EA800D000024050010240D001024050020240DE
:101EB800D002024050030240D003024050100240BA
:101EC800D010024050110240D0110240501202407E
:101ED800D012024050130240D01302400021C03CEF
:101EE8000023002B07D07B681B6800225A657B689B
:101EF8001B6800229A657B681B680022DA6700BFAE
:101F08001437BD465DF8047B704700BF80B586B0C6
:101F180000AFF860B9607A60194B00225A604FF43C
:101F28007A7000F073F80346FB75FB7D002B21D116
:101F3800134AFB689360134B3B61FB6823F0004333
:101F4800022B04D17968B86800F0AEF803E079682C
:101F5800B86800F0E5F84FF47A7000F057F80346D7
:101F6800FB753B691A68FB6823F02043DB431A4082
:101F78003B691A60FB7D18461837BD4680BD00BF17
:101F88000C0000202820024080B483B000AF00235A
:101F9800FB710D4B9B6A03F00103002B0DD00A4B1C
:101FA8000A4A5A60084B0A4A5A60074B9B6A03F070
:101FB8000103002B01D00123FB71FB7918460C3774
:101FC800BD465DF8047B7047002002402301674549
:101FD800AB89EFCD80B483B000AF0023FB710A4B0F
:101FE8009B6A094A43F001039362074B9B6A03F01B
:101FF8000103002B01D10123FB71FB7918460C3733
:10200800BD465DF8047B70470020024080B586B06D
:1020180000AF7860FFF754F87861204B3B6110E01F
:102028007B68B3F1FF3F0CD0FFF74AF802467B69A3
:10203800D31A7A689A4202D37B68002B01D1032312
:1020480027E03B691B6803F00B03002BE8D1144B16
:10205800FB603B691B6803F41E03BB60BB68002B75
:102068000CD0104B5A68BB6813430E4A5360BB68C8
:1020780003F41E02FB681A6001230AE03B691B682F
:1020880003F48033002B03D0FB684FF480321A60CE
:10209800002318461837BD4680BD00BF20200240E7
:1020A800302002400C00002080B48BB000AF786074
:1020B8003960042387F827307B683B623B68FB6103
:1020C800164BBB61BB691B6843F00202BB691A600F
:1020D800EFF310833B613B697B6172B600BFFB691C
:1020E8001A683B6A1A603B6A04333B62FB69043333
:1020F800FB6197F82730013B87F8273097F827309E
:10210800002BECD17B69FB60FB6883F3108800BF70
:1021180000BF2C37BD465DF8047B7047282002407D
:1021280080B485B000AF78603960094BFB60FB680C
:102138001B6843F00202FB681A603A687B681288E1
:1021480092B21A8000BF1437BD465DF8047B704711
:102158002820024080B586B000AF78603960334BE4
:102168001B78012B01D102235CE0304B01221A704D
:102178002E4B00225A604FF47A70FFF747FF034650
:10218800FB75FB7D002B49D17B681B68274A936050
:10219800274BFB607B681B6823F0004348F208026A
:1021A80093420BD17B685B68184600F043F84FF404
:1021B8007A70FFF72BFF0346FB7525E03B684FF06D
:1021C800FF321A607B689B683B6115E07B685B683F
:1021D8001946386900F066F84FF47A70FFF716FF71
:1021E8000346FB75FB7D002B03D03B683A691A60F8
:1021F8000AE03B6901333B617B68DA687B689B686E
:1022080013443A699A42E1D3FB681A687B681B68F1
:1022180023F00043DB431A40FB681A60034B00229B
:102228001A70FB7D18461837BD4680BD0C0000208B
:102238002820024080B485B000AF7860184BFB605E
:102248007B6803F00303032B08D1FB681B6843F486
:10225800004343F02003FA6813601BE07B6803F037
:102268000103002B09D0FB681B6823F0004323F00F
:10227800280343F02802FB681A607B6803F0020316
:10228800002B07D0FB681B6843F0004343F028038A
:10229800FA68136000BF1437BD465DF8047B7047C9
:1022A8002820024080B485B000AF78603960184BB0
:1022B800FB603B6803F00103002B11D0FB681B682F
:1022C80023F0004323F4FE53FA681360FB681A688E
:1022D8007B689B01134343F02402FB681A6010E0FB
:1022E800FB681B6823F4FE52FB681A60FB681A68D7
:1022F8007B689B01134343F0004343F02403FA68CF
:10230800136000BF1437BD465DF8047B704700BFFB
:102318002820024080B487B000AF7860396000237D
:102328003B6142E13B681A6801213B6901FA03F30A
:102338001340FB60FB68002B00F034813B685B684E
:10234800022B03D03B685B68122B25D13B69DA0866
:102358007B68083253F822307B613B6903F007033E
:102368009B000F2202FA03F3DB437A6913407B6177
:102378003B681B6903F00F023B6903F007039B00EE
:1023880002FA03F37A6913437B613B69DA087B68D5
:102398000832796943F822107B681B687B613B69C6
:1023A8005B00032202FA03F3DB437A6913407B6183
:1023B8003B685B6803F003023B695B0002FA03F3C6
:1023C8007A6913437B617B687A691A603B685B684A
:1023D800012B0BD03B685B68022B07D03B685B681E
:1023E800112B03D03B685B68122B30D17B689B684C
:1023F8007B613B695B00032202FA03F3DB437A69E2
:1024080013407B613B68DA683B695B0002FA03F3BF
:102418007A6913437B617B687A699A607B685B6839
:102428007B6101223B6902FA03F3DB437A691340BB
:102438007B613B685B681B0903F001023B6902FA98
:1024480003F37A6913437B617B687A695A603B6856
:102458005B6803F00303032B09D13B685B6803F057
:102468000303032B1BD13B689B68012B17D07B68A8
:10247800DB687B613B695B00032202FA03F3DB4301
:102488007A6913407B613B689A683B695B0002FA92
:1024980003F37A6913437B617B687A69DA603B6886
:1024A8005B6803F08053002B7CD0474A3B699B084C
:1024B800183352F823307B613B6903F00303DB00D8
:1024C8000F2202FA03F3DB437A6913407B617B68CE
:1024D8009A0A3E4B13403A6902F00302D200934035
:1024E8007A6913437B6138493B699B0818337A69D9
:1024F80041F82320344B1B687B61FB68DB437A6916
:1025080013407B613B685B6803F48013002B03D0A6
:102518007A69FB6813437B612B4A7B6913602A4BFA
:102528005B687B61FB68DB437A6913407B613B68CE
:102538005B6803F40013002B03D07A69FB6813432C
:102548007B61214A7B6953601F4BD3F884307B61E0
:10255800FB68DB437A6913407B613B685B6803F483
:102568000033002B03D07A69FB6813437B61164A5A
:102578007B69C2F88430144BD3F880307B61FB68E8
:10258800DB437A6913407B613B685B6803F4803303
:10259800002B03D07A69FB6813437B610A4A7B6985
:1025A800C2F880303B6901333B613B681A683B697C
:1025B80022FA03F3002B7FF4B5AE00BF00BF1C372F
:1025C800BD465DF8047B7047002002447F7F2F00E2
:1025D80080B487B000AF7860396000237B61A0E0E9
:1025E80001227B6902FA03F33A6813403B613B69B5
:1025F800002B00F09380524A7B699B08183352F8ED
:102608002330FB607B6903F00303DB000F2202FA2F
:1026180003F3FA681340FB607B689A0A494B13403E
:102628007A6902F00302D2009340FA689A4236D1DE
:10263800434BD3F880203B69DB4341491340C1F841
:1026480080303F4BD3F884203B69DB433C4913403F
:10265800C1F884303A4B1A683B69DB433849134068
:102668000B60374B5A683B69DB43354913404B6075
:102678007B6903F00303DB000F2202FA03F3FB601C
:102688002F4A7B699B08183352F82310FB68DA43FA
:102698002B487B699B080A40183340F823207B6845
:1026A8001A687B695B00032101FA03F31A437B680C
:1026B8001A607B69DA087B68083253F822107B6954
:1026C80003F007039B000F2202FA03F3DB437A6946
:1026D800D20819407B68083243F822107B689A6850
:1026E8007B695B00032101FA03F3DB431A407B6833
:1026F8009A607B685A6801217B6901FA03F3DB431E
:102708001A407B685A607B68DA687B695B00032142
:1027180001FA03F3DB431A407B68DA607B69013313
:102728007B613A687B6922FA03F3002B7FF458AF88
:1027380000BF00BF1C37BD465DF8047B704700BF73
:10274800002002447F7F2F0080B588B000AF7860FA
:102758007B68002B02D1012300F028BC944BDB6975
:1027680003F01803FB61924B9B6A03F00303BB6100
:102778007B681B6803F01003002B5BD0FB69082BF8
:1027880005D0FB69182B14D1BB69022B11D17B68CA
:10279800DB69002B02D1012300F008BC844B9B6944
:1027A80023F47C127B681B6A1B04814913438B61E9
:1027B80040E07B68DB69002B23D07D4B1B687C4A9B
:1027C80043F480731360FEF77BFC786108E0FEF742
:1027D80077FC02467B69D31A022B01D90323E5E370
:1027E800734B1B6803F40073002BF0D0704B9B698C
:1027F80023F47C127B681B6A1B046D4913438B61AD
:1028080018E06B4B1B686A4A23F480731360FEF769
:1028180057FC786108E0FEF753FC02467B69D31A3F
:10282800022B01D90323C1E3614B1B6803F4007336
:10283800002BF0D17B681B6803F00103002B00F02C
:10284800A080FB69102B05D0FB69182B09D1BB6947
:10285800032B06D17B685B68002B40F09280012334
:10286800A4E37B685B68B3F5803F06D1504B1B68D7
:102878004F4A43F48033136058E07B685B68002B51
:1028880012D14B4B1B684A4A23F480331360484BE0
:102898001B68474A23F480131360454B1B68444A5E
:1028A80023F48023136041E07B685B68B3F5A02FB5
:1028B80012D13F4B1B683E4A43F4802313603C4BC4
:1028C8001B683B4A23F480131360394B1B68384A52
:1028D80043F48033136029E07B685B68B3F5A81F75
:1028E80012D1334B1B68324A43F480231360304BB8
:1028F8001B682F4A43F4801313602D4B1B682C4A26
:1029080043F48033136011E0294B1B68284A23F4F1
:1029180080331360264B1B68254A23F480231360F9
:10292800234B1B68224A23F4801313607B685B687F
:10293800002B13D0FEF7C4FB786108E0FEF7C0FB5C
:1029480002467B69D31A642B01D903232EE3184B63
:102958001B6803F40033002BF0D012E0FEF7B0FB45
:10296800786108E0FEF7ACFB02467B69D31A642B5A
:1029780001D903231AE30E4B1B6803F40033002B21
:10298800F0D17B681B6803F00203002B00F09A80EB
:10299800FB69002B05D0FB69182B49D1BB69012BBA
:1029A80046D17B68DB68002B04D10123FEE200BF1F
:1029B800000C0244FB69002B1CD19A4B1B6803F0E6
:1029C80018027B681B699A4214D0964B1B6823F047
:1029D80018027B681B69934913430B6000F0D0FD14
:1029E800914B1B681846FEF7E1FA0346002B01D00D
:1029F8000123DBE2FEF764FB786108E0FEF760FB89
:102A080002467B69D31A022B01D90323CEE2854BF8
:102A18001B6803F00203002BF0D0824B1B6923F4E0
:102A2800FE027B685B691B047E4913430B6149E026
:102A38007B68DB68002B2CD07A4B1B6823F01802CC
:102A48007B681B69774913430B60764B1B68754A93
:102A580043F001031360FEF733FB786108E0FEF7EB
:102A68002FFB02467B69D31A022B01D903239DE26F
:102A78006C4B1B6803F00203002BF0D0694B1B69F9
:102A880023F4FE027B685B691B04664913430B61F0
:102A980018E0644B1B68634A23F001031360FEF7D8
:102AA8000FFB786108E0FEF70BFB02467B69D31A3F
:102AB800022B01D9032379E25A4B1B6803F0020366
:102AC800002BF0D17B681B6803F00803002B3CD077
:102AD8007B689B69002B1CD0524BD3F8F030514ACD
:102AE80043F08063C2F8F030FEF7EAFA786108E054
:102AF800FEF7E6FA02467B69D31A022B01D90323B3
:102B080054E2484BD3F8F03003F00063002BEFD0C9
:102B18001BE0444BD3F8F030424A23F08063C2F8FC
:102B2800F030FEF7CDFA786108E0FEF7C9FA024600
:102B38007B69D31A022B01D9032337E2394BD3F827
:102B4800F03003F00063002BEFD17B681B6803F0C3
:102B58000403002B00F0D280344B5B6A03F00103BE
:102B6800002B18D1314B5B6A304A43F001035362A2
:102B7800FEF7A6FA786108E0FEF7A2FA02467B693A
:102B8800D31A022B01D9032310E2284B5B6A03F006
:102B98000103002BF0D07B689B68012B08D1214BE7
:102BA800D3F8F0301F4A43F00103C2F8F03074E064
:102BB8007B689B68002B18D11A4BD3F8F030194A60
:102BC80023F00103C2F8F030164BD3F8F030154A61
:102BD80023F08003C2F8F030124BD3F8F030114ADA
:102BE80023F00403C2F8F03057E07B689B68052B9C
:102BF8001ED10C4BD3F8F0300A4A43F00403C2F854
:102C0800F030084BD3F8F030064A23F08003C2F8BE
:102C1800F030044BD3F8F030024A43F00103C2F815
:102C2800F0303AE0000C024404000020000802449E
:102C38007B689B68852B18D1A24BD3F8F030A14A4A
:102C480043F00403C2F8F0309E4BD3F8F0309D4AAD
:102C580043F08003C2F8F0309A4BD3F8F030994A29
:102C680043F00103C2F8F03017E0964BD3F8F03088
:102C7800944A23F00103C2F8F030924BD3F8F030B5
:102C8800904A23F00403C2F8F0308E4BD3F8F030AA
:102C98008C4A23F08003C2F8F0307B689B68002BD5
:102CA80016D0FEF70DFA78610AE0FEF709FA024637
:102CB8007B69D31A41F28832934201D9032375E123
:102CC800804BD3F8F03003F00203002BEDD015E071
:102CD800FEF7F6F978610AE0FEF7F2F902467B6939
:102CE800D31A41F28832934201D903235EE1754B2E
:102CF800D3F8F03003F00203002BEDD17B681B689A
:102D080003F02003002B36D07B685B6A002B19D0B8
:102D18006C4B1B686B4A43F480531360FEF7D0F981
:102D2800786108E0FEF7CCF902467B69D31A022BDA
:102D380001D903233AE1634B1B6803F40053002BCA
:102D4800F0D018E05F4B1B685E4A23F48053136091
:102D5800FEF7B6F9786108E0FEF7B2F902467B693A
:102D6800D31A022B01D9032320E1564B1B6803F425
:102D78000053002BF0D17B689B6A002B00F0158173
:102D8800FB69182B00F0AF807B689B6A022B40F030
:102D980086804C4B1B684B4A23F080731360FEF708
:102DA8008FF9786108E0FEF78BF902467B69D31A40
:102DB800022B01D90323F9E0424B1B6803F000738F
:102DC800002BF0D13F4B9B6A23F47C5323F0030381
:102DD8007A68D16A7A68126B12020A433949134336
:102DE8008B627B685B6B013BC3F308027B689B6B60
:102DF800013B5B029BB21A437B68DB6B013B1B0404
:102E080003F4FE031A437B681B6C013B1B0603F0AB
:102E1800FE432C4913434B632A4B9B6A294A23F0F0
:102E2800100393627B68DB6C264ADB009363254BB7
:102E38009B6A244A43F010039362224B9B6A23F057
:102E48000C027B685B6C1F4913438B621D4B9B6AAA
:102E580023F020027B689B6C1A4913438B62194B41
:102E68009B6A184A43F480339362164B1B68154AD1
:102E780043F080731360FEF723F9786108E0FEF7EA
:102E88001FF902467B69D31A022B01D903238DE06F
:102E98000C4B1B6803F00073002BF0D085E0094B46
:102EA8001B68084A23F080731360FEF709F97861FC
:102EB8000AE0FEF705F902467B69D31A022B03D90B
:102EC800032373E0000C02443A4B1B6803F00073C1
:102ED800002BEED1374B9B6A364A23F4E02323F0CC
:102EE8000303936261E0334B9B6A3B61314B5B6B3D
:102EF800FB607B689B6A012B31D03B6903F00302BE
:102F08007B68DB6A9A422AD13B691B0A03F03F02BD
:102F18007B681B6B9A4222D1FB68C3F308027B686B
:102F28005B6B013B9A421AD1FB685B0A03F07F0294
:102F38007B689B6B013B9A4211D1FB681B0C03F029
:102F48007F027B68DB6B013B9A4208D1FB681B0E52
:102F580003F07F027B681B6C013B9A4201D001237E
:102F680024E0144B9B6BDB08C3F30C027B68DB6C1F
:102F78009A421AD00F4B9B6A0E4A23F010039362B1
:102F8800FEF79EF8786100BFFEF79AF802467B6963
:102F98009342F9D07B68DB6C064ADB009363054BF0
:102FA8009B6A044A43F010039362002318462037B3
:102FB800BD4680BD000C024480B584B000AF786087
:102FC80039607B68002B01D101239EE1834B1B688C
:102FD80003F00F033A689A4210D9804B1B6823F01C
:102FE8000F027E493B6813430B607C4B1B6803F060
:102FF8000F033A689A4201D0012386E17B681B6877
:1030080003F01003002B12D07B685A69744B1B6ABB
:103018001B0A03F070039A4209D9714B1B6A23F407
:10302800E0427B685B691B026D4913430B627B6856
:103038001B6803F00803002B12D07B681A69684BE1
:103048001B6A1B0903F070039A4209D9644B1B6A77
:1030580023F4E0627B681B691B01614913430B621F
:103068007B681B6803F00403002B10D07B68DA68C8
:103078005B4B1B6A03F070039A4208D9584B1B6AD2
:1030880023F070027B68DB68554913430B627B6849
:103098001B6803F00203002B10D07B689A68504B22
:1030A8001B6A03F00F039A4208D94D4B1B6A23F0A1
:1030B8000F027B689B684A4913430B627B681B6855
:1030C80003F00103002B00F093807B685B68032BFF
:1030D80007D1434B1B6803F00073002B21D1012358
:1030E80013E17B685B68022B07D13D4B1B6803F437
:1030F8000033002B15D1012307E17B685B68012BA6
:1031080007D1374B1B6803F40073002B09D1012347
:10311800FBE0334B1B6803F00203002B01D10123B2
:10312800F3E02F4BDB6923F003027B685B682C49D3
:103138001343CB61FDF7C4FFF8607B685B68032B22
:1031480012D10AE0FDF7BCFF0246FB68D31A41F230
:103158008832934201D90323D7E0214BDB6903F07E
:103168001803182BEED143E07B685B68022B12D161
:103178000AE0FDF7A5FF0246FB68D31A41F2883240
:10318800934201D90323C0E0154BDB6903F0180310
:10319800102BEED12CE07B685B68012B22D10AE072
:1031A800FDF78EFF0246FB68D31A41F2883293423C
:1031B80001D90323A9E00A4BDB6903F01803082BA4
:1031C800EED115E0FDF77CFF0246FB68D31A41F209
:1031D8008832934206D9032397E000BF00200240BB
:1031E800000C02444B4BDB6903F01803002BE9D1B8
:1031F8007B681B6803F00203002B10D07B689A6879
:10320800444B1B6A03F00F039A4208D2414B1B6AD6
:1032180023F00F027B689B683E4913430B623E4BC9
:103228001B6803F00F033A689A4210D23A4B1B68A6
:1032380023F00F0238493B6813430B60364B1B6879
:1032480003F00F033A689A4201D001235DE07B68DE
:103258001B6803F00403002B10D07B68DA682D4B41
:103268001B6A03F070039A4208D22A4B1B6A23F0A8
:1032780070027B68DB68274913430B627B681B6815
:1032880003F00803002B12D07B681A69214B1B6AD4
:103298001B0903F070039A4209D21E4B1B6A23F4E0
:1032A800E0627B681B691B011A4913430B627B6848
:1032B8001B6803F01003002B12D07B685A69154B6A
:1032C8001B6A1B0A03F070039A4209D2114B1B6A4E
:1032D80023F4E0427B685B691B020E4913430B62CF
:1032E80000F022F802460B4B1B6A03F00F030B4950
:1032F800CB5C22FA03F30A4A13600A4B1B68184690
:10330800FDF754FE0346FB72FB7A18461037BD469C
:1033180080BD00BF000C024400200240A4940008B5
:10332800000000200400002080B489B000AF8C4B5E
:10333800DB6903F01803082B02D18A4BFB6107E114
:10334800874BDB6903F01803002B12D1844B1B68F1
:1033580003F02003002B09D0814B1B68DB0803F026
:103368000303814A22FA03F3FB61F1E07E4BFB6120
:10337800EEE07B4BDB6903F01803102B02D17B4B8B
:10338800FB61E5E0764BDB6903F01803182B40F08E
:10339800DD80734B9B6A03F003037B61704B9B6A70
:1033A8001B0A03F03F033B616D4B9B6A1B0903F04B
:1033B8000103FB606A4B9B6BDB08C3F30C03FA68E1
:1033C80002FB03F307EE903AF8EE677AC7ED027A4C
:1033D8003B69002B00F0B7807B69012B03D07B6928
:1033E800032B56D077E05E4B1B6803F02003002BBD
:1033F8002DD05B4B1B68DB0803F003035A4A22FA03
:1034080003F37B607B6807EE903AF8EE676A3B69E6
:1034180007EE903AF8EE677A86EEA77A504B5B6B28
:10342800C3F3080307EE903AF8EE676A97ED026A6D
:10343800DFED4F5AC6EE257A76EEA77AF7EE006AE8
:1034480077EEA67A67EE277AC7ED067A65E03B69DC
:1034580007EE903AF8EE677ADFED466A86EEA77ACD
:103468003F4B5B6BC3F3080307EE903AF8EE676ACD
:1034780097ED026ADFED3E5AC6EE257A76EEA77A18
:10348800F7EE006A77EEA67A67EE277AC7ED067A36
:1034980043E03B6907EE903AF8EE677ADFED366A6B
:1034A80086EEA77A2E4B5B6BC3F3080307EE903AC0
:1034B800F8EE676A97ED026ADFED2D5AC6EE257AB7
:1034C80076EEA77AF7EE006A77EEA67A67EE277AA5
:1034D800C7ED067A21E03B6907EE903AF8EE677A85
:1034E800DFED266A86EEA77A1D4B5B6BC3F30803F4
:1034F80007EE903AF8EE676A97ED026ADFED1C5A1C
:10350800C6EE257A76EEA77AF7EE006A77EEA67A07
:1035180067EE277AC7ED067A00BF114B5B6B5B0A33
:1035280003F07F0301333B603B6807EE903AB8EE47
:10353800677AD7ED066AC6EE877AFCEEE77A17EE69
:10354800903AFB6104E00023FB6101E0064BFB615C
:10355800FB6918462437BD465DF8047B704700BFF9
:10356800000C024400093D000090D00300366E01B3
:10357800000000460024744C001BB74B0024744A1A
:1035880080B500AFFFF7D0FE0246084B1B6A03F078
:103598000F030749CB5C03F01F0322FA03F3054A24
:1035A8001360044B1B68184680BD00BF000C024422
:1035B800A49400080000002080B500AFFFF7E0FFEA
:1035C8000246064B1B6A1B0903F007030449CB5C40
:1035D80003F01F0322FA03F3184680BD000C0244CF
:1035E800B494000880B500AFFFF7CAFF0246064B47
:1035F8001B6A1B0A03F007030449CB5C03F01F0393
:1036080022FA03F3184680BD000C0244B494000863
:1036180080B500AFFFF7B4FF0246064B1B6A1B0BD1
:1036280003F007030449CB5C03F01F0322FA03F3FA
:10363800184680BD000C0244B49400082DE9B04F30
:10364800AAB000AFC7F89400002387F8A33000237E
:1036580087F8A230D7F89430D3E9002302F08074B9
:10366800002554EA05030BD0B84BD3F8E83023F013
:103678004041D7F894301B6BB44A0B43C2F8E8308A
:10368800D7F89430D3E9002302F001084FF000097D
:1036980058EA090338D0D7F894305B6B052B19D852
:1036A80001A252F823F000BFE5360008C936000829
:1036B800DD360008E5360008E5360008E53600087E
:1036C800D7F894300833184601F0F2FF034687F81C
:1036D800A33004E0012387F8A33000E000BF97F887
:1036E800A330002B0CD1994BD3F8D83023F0070125
:1036F800D7F894305B6B954A0B43C2F8D83003E097
:1037080097F8A33087F8A230D7F89430D3E900238C
:1037180002F0020A4FF0000B5AEA0B033CD0D7F82C
:1037280094309B6B282B1BD0282B15D8202B19D015
:10373800202B11D8182B17D0182B0DD8002B15D0EB
:10374800082B09D1D7F894300833184601F0B0FF98
:10375800034687F8A3300AE0012387F8A33006E080
:1037680000BF04E000BF02E000BF00E000BF97F820
:10377800A330002B0CD1754BD3F8D83023F0380187
:10378800D7F894309B6B714A0B43C2F8D83003E0EA
:1037980097F8A33087F8A230D7F89430D3E90023FC
:1037A80002F00403C7F888300023C7F88C30D7E943
:1037B80022120B46134340D0D7F89430DB6BB3F595
:1037C800A07F1ED0B3F5A07F17D8B3F5807F1AD09D
:1037D800B3F5807F11D8C02B17D0C02B0DD8002B84
:1037E80015D0402B09D1D7F894300833184601F08A
:1037F8005FFF034687F8A3300AE0012387F8A33068
:1038080006E000BF04E000BF02E000BF00E000BF28
:1038180097F8A330002B0CD14C4BD3F8D83023F4B5
:10382800E071D7F89430DB6B484A0B43C2F8D830C4
:1038380003E097F8A33087F8A230D7F89430D3E99B
:10384800002302F48053C7F880300023C7F884307F
:10385800D7E920120B46134343D0D7F894301B6C9A
:10386800B3F1A06F21D0B3F1A06F1AD8B3F1806F74
:103878001DD0B3F1806F14D8B3F1407F19D0B3F1E4
:10388800407F0ED8002B16D0B3F1807F09D1D7F82E
:1038980094300833184601F00BFF034687F8A3302D
:1038A8000AE0012387F8A33006E000BF04E000BF68
:1038B80002E000BF00E000BF97F8A330002B0CD156
:1038C800224BD3F8E03023F0E061D7F894301B6C3A
:1038D8001E4A0B43C2F8E03003E097F8A33087F89C
:1038E800A230D7F89430D3E9002302F40053BB6721
:1038F8000023FB67D7E91E120B4613433ED0D7F8C7
:1039080094305B6CB3F5403F1BD0B3F5403F14D8FF
:10391800B3F5003F17D0B3F5003F0ED8002B17D0F2
:10392800B3F5803F09D1D7F894300833184601F031
:10393800BFFE034687F8A3300BE0012387F8A330C6
:1039480007E000BF05E000BF03E000BF000C024431
:1039580000BF97F8A330002B0CD1A54BD3F8E43067
:1039680023F44031D7F894305B6CA14A0B43C2F87A
:10397800E43003E097F8A33087F8A230D7F8943002
:10398800D3E9002302F480433B6700237B67D7E930
:103998001C120B4613433BD0D7F894309B6CB3F5FD
:1039A800402F1BD0B3F5402F14D8B3F5002F17D0F4
:1039B800B3F5002F0ED8002B14D0B3F5802F09D102
:1039C800D7F894300833184601F072FE034687F89A
:1039D800A33008E0012387F8A33004E000BF02E029
:1039E80000BF00E000BF97F8A330002B0CD1804B3C
:1039F800D3F8E43023F44021D7F894309B6C7C4A08
:103A08000B43C2F8E43003E097F8A33087F8A230FC
:103A1800D7F89430D3E9002302F48033BB6600233F
:103A2800FB66D7E91A120B46134333D0D7F8943004
:103A3800DB6CB3F1007F15D0B3F1007F0ED8002BFB
:103A480012D0B3F1807F09D1D7F8943008331846E3
:103A580001F02EFE034687F8A33006E0012387F81D
:103A6800A33002E000BF00E000BF97F8A330002BAE
:103A78000CD15F4BD3F8E43023F04071D7F8943081
:103A8800DB6C5B4A0B43C2F8E43003E097F8A330E1
:103A980087F8A230D7F89430D3E90023002139669B
:103AA80003F480537B66D7E918120B46134333D0CF
:103AB800D7F894301B6DB3F1006F15D0B3F1006FD8
:103AC8000ED8002B12D0B3F1806F09D1D7F89430FB
:103AD8000833184601F0ECFD034687F8A33006E0EA
:103AE800012387F8A33002E000BF00E000BF97F889
:103AF800A330002B0CD13E4BD3F8E43023F04061C7
:103B0800D7F894301B6D3A4A0B43C2F8E43003E00F
:103B180097F8A33087F8A230D7F89430D3E9002378
:103B28000021B96503F40063FB65D7E916120B465B
:103B380013430ED02E4BDB692D4A23F40043D36187
:103B48002B4BD969D7F89430D3F88030284A0B43E7
:103B5800D361D7F89430D3E9002302F400333B65EE
:103B680000237B65D7E914120B46134346D0D7F8D8
:103B780094305B6DB3F5A06F21D0B3F5A06F1AD860
:103B8800B3F5806F1DD0B3F5806F14D8B3F5407FBF
:103B980019D0B3F5407F0ED8002B16D0B3F5807F2F
:103BA80009D1D7F894300833184601F081FD03464F
:103BB80087F8A3300AE0012387F8A33006E000BFA6
:103BC80004E000BF02E000BF00E000BF97F8A330A8
:103BD800002B0FD1064BD3F8DC3023F4E061D7F883
:103BE80094305B6D024A0B43C2F8DC3006E000BF3C
:103BF800000C024497F8A33087F8A230D7F8943025
:103C0800D3E9002302F48023BB640023FB64D7E9D3
:103C180012120B46134343D0D7F894309B6DB3F57B
:103C2800A04F21D0B3F5A04F1AD8B3F5804F1DD0BF
:103C3800B3F5804F14D8B3F5405F19D0B3F5405FA2
:103C48000ED8002B16D0B3F5805F09D1D7F8943081
:103C58000833184601F02CFD034687F8A3300AE024
:103C6800012387F8A33006E000BF04E000BF02E0AC
:103C780000BF00E000BF97F8A330002B0CD1B64B73
:103C8800D3F8DC3023F4E041D7F894309B6DB24A86
:103C98000B43C2F8DC3003E097F8A33087F8A23072
:103CA800D7F89430D3E9002302F400133B640023CF
:103CB8007B64D7E910120B46134330D0D7F8943001
:103CC8005B6E052B0FD8032B11D2012B11D9022BB8
:103CD80009D1D7F894300833184601F0E9FC0346B7
:103CE80087F8A33006E0012387F8A33002E000BF7D
:103CF80000E000BF97F8A330002B0CD1964BD3F807
:103D0800E83023F00701D7F894305B6E924A0B43F2
:103D1800C2F8E83003E097F8A33087F8A230D7F864
:103D28009430D3E900230021B96303F40073FB63E3
:103D3800D7E90E120B46134322D0D7F894309B6E66
:103D4800002B05D0082B05D0012387F8A33002E00B
:103D580000BF00E000BF97F8A330002B0CD17E4BCA
:103D6800D3F8E83023F00801D7F894309B6E7A4AEC
:103D78000B43C2F8E83003E097F8A33087F8A23085
:103D8800D7F89430D3E9002302F000733B63002393
:103D98007B63D7E90C120B46134300F0B0806F4BDE
:103DA8005B6A6E4A43F001035362FDF789F9C7F86D
:103DB8009C000BE0FDF784F90246D7F89C30D31A33
:103DC800022B03D9032387F8A33005E0634B5B6A12
:103DD80003F00103002BEDD097F8A330002B40F03F
:103DE8008A805D4BD3F8F03003F44073C7F8A430F1
:103DF800D7F8A430002B22D0D7F894309B6FD7F88F
:103E0800A4209A421BD0544BD3F8F03023F44073CB
:103E1800C7F8A430504BD3F8F0304F4A43F48033FE
:103E2800C2F8F0304C4BD3F8F0304B4A23F48033CF
:103E3800C2F8F030484AD7F8A430C2F8F030D7F8C2
:103E4800A43003F00103002B19D0FDF739F9C7F8A6
:103E58009C000DE0FDF734F90246D7F89C30D31AE0
:103E680041F28832934203D9032387F8A33006E04E
:103E7800394BD3F8F03003F00203002BEAD097F85F
:103E8800A330002B32D1D7F894309B6F03F44073E2
:103E9800B3F5407F0FD1304BDB6923F47C51D7F861
:103EA80094309B6F1B0923F07F4323F030032A4A89
:103EB8000B43D36105E0284BDB69274A23F47C5385
:103EC800D361254BD3F8F030234A23F44073C2F86A
:103ED800F030214BD3F8F010D7F894309B6FC3F330
:103EE8000B031D4A0B43C2F8F03008E097F8A330E3
:103EF80087F8A23003E097F8A33087F8A230D7F804
:103F08009430D3E9002302F08063BB620023FB6294
:103F1800D7E90A120B46134338D0D7F894301B6EF2
:103F2800302B14D0302B0ED8202B12D0202B0AD8AF
:103F3800002B15D0102B06D1074B9B6A064A43F479
:103F4800003393620DE0012387F8A33009E000BF36
:103F580007E000BF05E000BF000C0244000802446F
:103F680000BF97F8A330002B0CD1B54BD3F8E8303D
:103F780023F03002D7F894301B6EB1491343C1F8CF
:103F8800E83003E097F8A33087F8A230D7F89430E8
:103F9800D3E9002302F000633B6200237B62D7E988
:103FA80008120B4613433CD0D7F89430DB6E042B31
:103FB8001DD801A252F823F0D53F0008E33F0008BE
:103FC800F73F0008FF3F0008FF3F00089C4B9B6A33
:103FD8009B4A43F4003393620EE0D7F894300833D9
:103FE800184601F065FB034687F8A33004E0012377
:103FF80087F8A33000E000BF97F8A330002B0CD15E
:104008008F4BD3F8E03023F00702D7F89430DB6EFB
:104018008B491343C1F8E03003E097F8A33087F8E1
:10402800A230D7F89430D3E9002302F08053BB6163
:104038000023FB61D7E906120B4613433CD0D7F89F
:1040480094301B6F202B1FD0202B19D8182B1DD074
:10405800182B15D8002B02D0082B07D010E0784B6E
:104068009B6A774A43F40033936210E0D7F89430A0
:104078000833184601F01CFB034687F8A33006E016
:10408800012387F8A33002E000BF00E000BF97F8E3
:10409800A330002B0CD16A4BD3F8E03023F0380260
:1040A800D7F894301B6F66491343C1F8E03003E03A
:1040B80097F8A33087F8A230D7F89430D3E90023D3
:1040C80002F000533B6100237B61D7E904120B46E1
:1040D80013433ED0D7F894305B6FB3F5807F20D080
:1040E800B3F5807F19D8C02B1DD0C02B15D8002B55
:1040F80002D0402B07D010E0514B9B6A504A43F442
:104108000033936210E0D7F894300833184601F072
:10411800CFFA034687F8A33006E0012387F8A330D7
:1041280002E000BF00E000BF97F8A330002B0CD1DD
:10413800434BD3F8E03023F4E072D7F894305B6F48
:104148003F491343C1F8E03003E097F8A33087F8FC
:10415800A230D7F89430D3E900230021B96003F0E6
:104168000403FB60D7E902120B46134338D0D7F893
:104178009430DB6DB3F5007F0ED0B3F5007F15D812
:10418800002B17D0B3F5807F10D12D4B9B6A2C4A9A
:1041980043F4003393620EE0D7F89430083318469E
:1041A80001F086FA034687F8A33004E0012387F874
:1041B800A33000E000BF97F8A330002B0CD1204BB0
:1041C800D3F8E83023F44072D7F89430DB6D1C49FB
:1041D8001343C1F8E83003E097F8A33087F8A2301A
:1041E800D7F89430D3E900230021396003F0100395
:1041F8007B60D7E900120B46134339D0D7F89430C7
:10420800DB6F302B1ED0302B15D8102B02D0202B73
:1042180007D010E00A4B9B6A094A43F400339362C3
:1042280011E0D7F894300833184601F041FA0346F4
:1042380087F8A33007E0012387F8A33003E000BF25
:10424800000C024400BF97F8A330002B0CD10C4B94
:10425800D3F8E43023F03002D7F89430DB6F084904
:104268001343C1F8E43003E097F8A33087F8A2308D
:1042780097F8A2301846A837BD46BDE8B08F00BFF2
:10428800000C024480B48BB000AF7860AE4B5B6B1F
:10429800C3F308033B62AC4B9B6A03F00303FB6167
:1042A800A94B9B6A1B0A03F03F03BB61A64B9B6AA1
:1042B8001B0903F001037B61A34B9B6BDB08C3F372
:1042C8000C037A6902FB03F307EE903AF8EE677A7B
:1042D800C7ED047ABB69002B00F02681FB69032B2C
:1042E80053D0FB69032B6FD8FB69012B03D0FB6903
:1042F800022B2BD068E0944B1B68DB0803F0030308
:10430800924A22FA03F3FB60FB6807EE903AF8EE54
:10431800676ABB6907EE903AF8EE677A86EEA77A85
:104328003B6A07EE903AF8EE676A97ED046ADFEDAC
:10433800885AC6EE257A76EEA77AF7EE006A77EE07
:10434800A67A67EE277AC7ED097A68E0BB6907EEB7
:10435800903AF8EE677ADFED7F6A86EEA77A3B6AD5
:1043680007EE903AF8EE676A97ED046ADFED785A3F
:10437800C6EE257A76EEA77AF7EE006A77EEA67A89
:1043880067EE277AC7ED097A49E0BB6907EE903AEC
:10439800F8EE677ADFED706A86EEA77A3B6A07EE79
:1043A800903AF8EE676A97ED046ADFED695AC6EE4F
:1043B800257A76EEA77AF7EE006A77EEA67A67EEA8
:1043C800277AC7ED097A2AE05F4B1B68DB0803F000
:1043D80003035E4A22FA03F3FB60FB6807EE903A98
:1043E800F8EE676ABB6907EE903AF8EE677A86EEF0
:1043F800A77A3B6A07EE903AF8EE676A97ED046A87
:10440800DFED535AC6EE257A76EEA77AF7EE006A04
:1044180077EEA67A67EE277AC7ED097A00BF4A4B8E
:104428001B6803F00073B3F1007F21D1464B9B6AF0
:1044380003F48033002B17D0434B5B6B5B0A03F00C
:104448007F0307EE903AF8EE677AB7EE007A37EE18
:10445800877AD7ED096AC6EE877AFCEEE77A17EE17
:10446800902A7B681A6006E07B6800221A6002E0E6
:104478007B6800221A60344B1B6803F00073B3F1A9
:10448800007F21D1304B9B6A03F40033002B17D0F7
:104498002D4B5B6B1B0C03F07F0307EE903AF8EE95
:1044A800677AB7EE007A37EE877AD7ED096AC6EEF3
:1044B800877AFCEEE77A17EE902A7B685A6006E066
:1044C8007B6800225A6002E07B6800225A601E4B1B
:1044D8001B6803F00073B3F1007F21D11A4B9B6A6C
:1044E80003F48023002B17D0174B5B6B1B0E03F0D4
:1044F8007F0307EE903AF8EE677AB7EE007A37EE68
:10450800877AD7ED096AC6EE877AFCEEE77A17EE66
:10451800902A7B689A6010E07B6800229A600CE021
:104528007B6800229A6008E07B6800221A607B683A
:1045380000225A607B6800229A6000BF2C37BD4673
:104548005DF8047B704700BF000C02440090D00364
:10455800000000460024744A001BB74B80B48BB09F
:1045680000AF7860AE4BDB6BC3F308033B62AC4B28
:10457800DB6A03F00303FB61A94BDB6A1B0A03F048
:104588003F03BB61A64BDB6A1B0903F001037B6198
:10459800A34B1B6CDB08C3F30C037A6902FB03F320
:1045A80007EE903AF8EE677AC7ED047ABB69002BFC
:1045B80000F02681FB69032B53D0FB69032B6FD8CE
:1045C800FB69012B03D0FB69022B2BD068E0944BCD
:1045D8001B68DB0803F00303924A22FA03F3FB602B
:1045E800FB6807EE903AF8EE676ABB6907EE903A07
:1045F800F8EE677A86EEA77A3B6A07EE903AF8EE0D
:10460800676A97ED046ADFED885AC6EE257A76EE7A
:10461800A77AF7EE006A77EEA67A67EE277AC7EDF3
:10462800097A68E0BB6907EE903AF8EE677ADFED41
:104638007F6A86EEA77A3B6A07EE903AF8EE676AD9
:1046480097ED046ADFED785AC6EE257A76EEA77AFA
:10465800F7EE006A77EEA67A67EE277AC7ED097A51
:1046680049E0BB6907EE903AF8EE677ADFED706AC9
:1046780086EEA77A3B6A07EE903AF8EE676A97EDFE
:10468800046ADFED695AC6EE257A76EEA77AF7EE68
:10469800006A77EEA67A67EE277AC7ED097A2AE0EC
:1046A8005F4B1B68DB0803F003035E4A22FA03F33F
:1046B800FB60FB6807EE903AF8EE676ABB6907EEA5
:1046C800903AF8EE677A86EEA77A3B6A07EE903A58
:1046D800F8EE676A97ED046ADFED535AC6EE257A5D
:1046E80076EEA77AF7EE006A77EEA67A67EE277A73
:1046F800C7ED097A00BF4A4B1B6803F00063B3F1AA
:10470800006F21D1464BDB6A03F48033002B17D0AE
:10471800434BDB6B5B0A03F07F0307EE903AF8EE3E
:10472800677AB7EE007A37EE877AD7ED096AC6EE70
:10473800877AFCEEE77A17EE902A7B681A6006E023
:104748007B6800221A6002E07B6800221A60344B02
:104758001B6803F00063B3F1006F21D1304BDB6AB3
:1047680003F40033002B17D02D4BDB6B1B0C03F02D
:104778007F0307EE903AF8EE677AB7EE007A37EEE5
:10478800877AD7ED096AC6EE877AFCEEE77A17EEE4
:10479800902A7B685A6006E07B6800225A6002E033
:1047A8007B6800225A601E4B1B6803F00063B3F15C
:1047B800006F21D11A4BDB6A03F48023002B17D03A
:1047C800174BDB6B1B0E03F07F0307EE903AF8EEF6
:1047D800677AB7EE007A37EE877AD7ED096AC6EEC0
:1047E800877AFCEEE77A17EE902A7B689A6010E0E9
:1047F8007B6800229A600CE07B6800229A6008E0DF
:104808007B6800221A607B6800225A607B6800225D
:104818009A6000BF2C37BD465DF8047B704700BF27
:10482800000C02440090D003000000460024744AA3
:10483800001BB74B80B58CB000AFC7E90001D7E9C2
:10484800002302F17E410B434BD1C44BD3F8F03027
:1048580003F44073BB62C14BD3F8F03003F002039A
:10486800022B08D1BB6AB3F5807F04D14FF4004313
:10487800FB6200F014BFB94BD3F8F03003F00063CB
:10488800B3F1006F08D1BB6AB3F5007F04D14FF4D0
:10489800FA43FB6200F003BFB04B1B6803F400331C
:1048A800B3F5003F19D1BB6AB3F5407F15D1AB4BC7
:1048B800DB6903F47C53B3F5007F0AD3A74BDB69AC
:1048C8001B0A03F03F03A64AB2FBF3F3FB6200F0B6
:1048D800E6BE0023FB6200F0E2BE0023FB6200F0AC
:1048E800DEBED7E90023A3F5805152EA010300F0A8
:1048F8008E83D7E90023012A73F5805380F0CC8694
:10490800D7E90023A3F5007152EA010300F0AA8257
:10491800D7E90023012A73F5007380F0BD86D7E933
:104928000023A3F1100152EA010300F08186D7E9C0
:104938000023012A73F1100380F0AE86D7E9002323
:10494800191F52EA010300F0B184D7E90023012AB4
:1049580073F1040380F0A086D7E9002302F16041D7
:104968000B4300F0AA85D7E900237E498A4273F1F8
:10497800000380F09186D7E9002302F170410B43D0
:1049880000F03285D7E9002377498A4273F10003A2
:1049980080F08286D7E9002302F178410B4300F0CA
:1049A800BC84D7E9002371498A4273F1000380F07F
:1049B8007386D7E9002302F17C410B4300F0F285AE
:1049C800D7E900236A498A4273F1000380F06486BC
:1049D800D7E90023A2F500110B4300F0E581D7E9E0
:1049E800002364498A4273F1000380F05586D7E9B1
:1049F8000023A2F580210B4300F0CC83D7E90023E4
:104A08005D498A4273F1000380F04686D7E90023A6
:104A1800A2F500310B4300F03183D7E90023574951
:104A28008A4273F1000380F03786D7E90023A2F5A4
:104A380080310B4300F0BB82D7E90023B2F1011F9C
:104A480073F1000380F02886D7E90023A2F580419E
:104A58000B4300F06D82D7E9002344F201018A423A
:104A680073F1000380F01886D7E90023A2F50051FE
:104A78000B4300F01E82D7E9002342F201018A426B
:104A880073F1000380F00886D7E90023A2F580516E
:104A98000B4300F03781D7E9002341F201018A4234
:104AA80073F1000380F0F885D7E90023111F0B4349
:104AB80000F0D280D7E90023052A73F1000380F0C3
:104AC800EB85D7E90023511E0B4306D0D7E9002315
:104AD800911E0B436CD000F0DFBD204BD3F8D830CB
:104AE80003F00703BB62BB6A002B04D1FEF77AFD13
:104AF800F86200F0D4BD194B1B6803F00063B3F1F2
:104B0800006F0AD1BB6A012B07D107F10C031846C5
:104B1800FFF724FD3B69FB6248E0104B1B6803F07C
:104B28000203022B0CD1BB6A032B09D10B4B1B6868
:104B3800DB0803F00303124A22FA03F3FB6235E0B1
:104B4800064B1B6803F40073B3F5007F1CD1BB6AE6
:104B5800042B19D10B4BFB6228E000BF000C024468
:104B680000366E010100002001000010010000085D
:104B780001000004010020000100040001000200FF
:104B88000090D00300093D009F4BD3F8F03003F0AC
:104B98000203022B06D1BB6A052B03D14FF4004355
:104BA800FB6203E00023FB6200F079BD00F077BDF3
:104BB800954BD3F8D83003F03803BB62BB6A002B9F
:104BC80004D1FEF7F9FCF86200F069BD8E4B1B6852
:104BD80003F00063B3F1006F0AD1BB6A082B07D159
:104BE80007F10C031846FFF7B9FC3B69FB6231E09B
:104BF800854B1B6803F00203022B0CD1BB6A182BF0
:104C080009D1814B1B68DB0803F003037F4A22FAB2
:104C180003F3FB621EE07C4B1B6803F40073B3F5DF
:104C2800007F05D1BB6A202B02D1794BFB6211E0D2
:104C3800754BD3F8F03003F00203022B06D1BB6AA0
:104C4800282B03D14FF40043FB6203E00023FB62EF
:104C580000F025BD00F023BD6B4BD3F8D83003F42A
:104C6800E073BB62BB6A002B04D1FEF7A5FCF862B7
:104C780000F015BD644B1B6803F00063B3F1006FCF
:104C88000AD1BB6A402B07D107F10C031846FFF77E
:104C980065FC3B69FB6233E05B4B1B6803F0020376
:104CA800022B0CD1BB6AC02B09D1574B1B68DB0800
:104CB80003F00303554A22FA03F3FB6220E0524B48
:104CC8001B6803F40073B3F5007F06D1BB6AB3F524
:104CD800807F02D14E4BFB6212E04B4BD3F8F03091
:104CE80003F00203022B07D1BB6AB3F5A07F03D1FF
:104CF8004FF40043FB6203E00023FB6200F0CFBCEB
:104D080000F0CDBC404BD3F8E03003F0E063BB6269
:104D1800BB6A002B04D1FEF77BFCF86200F0BFBC35
:104D2800BB6AB3F1807F08D107F10C031846FFF77F
:104D380015FC3B69FB6200F0B2BC334B1B6803F007
:104D48000203022B0DD1BB6AB3F1407F09D12E4B70
:104D58001B68DB0803F003032C4A22FA03F3FB6207
:104D680020E0294B1B6803F40073B3F5007F06D1DC
:104D7800BB6AB3F1806F02D1254BFB6212E0224B74
:104D8800D3F8F03003F00203022B07D1BB6AB3F16A
:104D9800A06F03D14FF40043FB6203E00023FB62E2
:104DA80000F07DBC00F07BBC174BD3F8E83003F073
:104DB8000703BB62BB6A002B04D1FEF7E1FBF86274
:104DC80000F06DBCBB6A012B04D1FEF7ADFAF862A6
:104DD80000F065BCBB6A022B08D107F10C0318462A
:104DE800FFF7BCFB7B69FB6200F059BC064B1B68F4
:104DF80003F40033B3F5003F0ED1BB6A032B0BD18C
:104E0800044BFB622CE000BF000C02440090D0036E
:104E180000093D0000366E01954B1B6803F0020344
:104E2800022B0CD1BB6A042B09D1914B1B68DB0800
:104E380003F003038F4A22FA03F3FB6210E08C4B62
:104E48001B6803F40073B3F5007F05D1BB6A052B1B
:104E580002D1894BFB6203E00023FB6200F01FBC18
:104E680000F01DBC824BD3F8E83003F00803BB62A6
:104E78007F4BD3F8F03003F00203022B06D1BB6A54
:104E8800002B03D14FF40043FB6211E0784BD3F8B9
:104E9800F03003F00063B3F1006F06D1BB6A082B52
:104EA80003D14FF4FA43FB6202E00023FB62F6E30E
:104EB800F5E36F4BD3F8E43003F44033BB62BB6ACD
:104EC800002B03D1FEF778FBF862E8E3BB6AB3F581
:104ED800803F07D107F10C031846FFF73FFB7B69BA
:104EE800FB62DCE3624B1B6803F00203022B0DD16B
:104EF800BB6AB3F5003F09D15D4B1B68DB0803F0C3
:104F080003035C4A22FA03F3FB6210E0584B1B6868
:104F180003F40073B3F5007F06D1BB6AB3F5403FD5
:104F280002D1554BFB6202E00023FB62B7E3B6E314
:104F38004F4BD3F8E43003F44023BB62BB6A002B29
:104F480003D1FEF739FBF862A9E3BB6AB3F5802FFA
:104F580007D107F10C031846FFF700FB7B69FB62DA
:104F68009DE3434B1B6803F00203022B0DD1BB6A80
:104F7800B3F5002F09D13E4B1B68DB0803F0030390
:104F88003C4A22FA03F3FB6210E0394B1B6803F436
:104F98000073B3F5007F06D1BB6AB3F5402F02D189
:104FA800354BFB6202E00023FB6278E377E3304B8A
:104FB800D3F8E43003F04073BB62BB6A002B03D123
:104FC800FEF7FAFAF8626AE3BB6AB3F1807F07D1A9
:104FD80007F10C031846FFF7C1FA7B69FB625EE331
:104FE800234B1B6803F00203022B0DD1BB6AB3F1FC
:104FF800007F09D11E4B1B68DB0803F003031D4A21
:1050080022FA03F3FB624AE30023FB6247E3184BEF
:10501800D3F8E43003F04063BB62BB6A002B03D1D2
:10502800FEF7F6FAF8623AE3BB6AB3F1806F07D18C
:1050380007F10C031846FFF791FA7B69FB622EE330
:105048000B4B1B6803F00203022B0DD1BB6AB3F1B3
:10505800006F09D1064B1B68DB0803F00303054A00
:1050680022FA03F3FB621AE30023FB6217E300BF93
:10507800000C02440090D00300093D009B4BD3F87C
:10508800DC3003F4E063BB62BB6AB3F5A06F44D0C5
:10509800BB6AB3F5A06F79D8BB6AB3F5806F2DD022
:1050A800BB6AB3F5806F71D8BB6AB3F5407F17D080
:1050B800BB6AB3F5407F69D8BB6A002B04D0BB6AD2
:1050C800B3F5807F04D061E0FEF7A2FAF86260E0F1
:1050D80007F10C031846FFF741FAFB68FB6258E03A
:1050E800824BD3F8F03003F00203022B03D14FF4C4
:1050F8000043FB624DE00023FB624AE07B4BD3F8A0
:10510800F03003F00063B3F1006F03D14FF4FA43BA
:10511800FB623EE00023FB623BE0744BD3F8E830CF
:1051280003F040437B62714B1B6803F00203022BC0
:105138000CD17B6A002B09D16C4B1B68DB0803F090
:1051480003036B4A22FA03F3FB621EE0674B1B68FA
:1051580003F40073B3F5007F06D17B6AB3F1804F87
:1051680002D1644BFB6210E0604B1B6803F4003310
:10517800B3F5003F06D17B6AB3F1004F02D15E4B15
:10518800FB6202E00023FB6203E002E00023FB6213
:1051980000BF84E2554BD3F8DC3003F4E043BB6234
:1051A800BB6AB3F5A04F44D0BB6AB3F5A04F79D81A
:1051B800BB6AB3F5804F2DD0BB6AB3F5804F71D869
:1051C800BB6AB3F5405F17D0BB6AB3F5405F69D8D7
:1051D800BB6A002B04D0BB6AB3F5805F04D061E0E2
:1051E800FEF7EAF9F86260E007F10C031846FFF7EA
:1051F800B5F9FB68FB6258E03C4BD3F8F03003F09C
:105208000203022B03D14FF40043FB624DE000235D
:10521800FB624AE0354BD3F8F03003F00063B3F19A
:10522800006F03D14FF4FA43FB623EE00023FB62B8
:105238003BE02E4BD3F8E83003F040437B622B4B26
:105248001B6803F00203022B0CD17B6A002B09D1E7
:10525800264B1B68DB0803F00303254A22FA03F3F5
:10526800FB621EE0214B1B6803F40073B3F5007F5B
:1052780006D17B6AB3F1804F02D11E4BFB6210E06E
:105288001A4B1B6803F40033B3F5003F06D17B6A61
:10529800B3F1004F02D1184BFB6202E00023FB621E
:1052A80003E002E00023FB6200BFF8E10F4BD3F8F4
:1052B800E83003F44073BB620C4B1B6803F4003303
:1052C800B3F5003F05D1BB6A002B02D10A4BFB6244
:1052D800E5E1BB6AB3F5807F10D107F118031846E2
:1052E800FEF7D0FFFB69FB62D9E100BF000C024466
:1052F8000090D00300093D0000366E01BB6AB3F58B
:10530800007F07D107F10C031846FFF727F93B691F
:10531800FB62C4E10023FB62C1E19D4BD3F8E0309E
:1053280003F00703BB62BB6A042B59D801A252F8E9
:1053380023F000BF5153000861530008E9530008E7
:10534800715300087753000807F118031846FEF751
:1053580099FFFB69FB6246E007F10C031846FFF76B
:10536800FDF8FB68FB623EE08A4BFB623BE0884B42
:10537800D3F8E83003F040437B62854B1B6803F0A9
:105388000203022B0CD17B6A002B09D1804B1B68CE
:10539800DB0803F00303804A22FA03F3FB621EE0F2
:1053A8007B4B1B6803F40073B3F5007F06D17B6A5F
:1053B800B3F1804F02D1794BFB6210E0744B1B684C
:1053C80003F40033B3F5003F06D17B6AB3F1004F15
:1053D80002D1734BFB6202E00023FB6203E002E0B0
:1053E8000023FB6200BF5AE1694BD3F8E03003F0B9
:1053F8003803BB62BB6A202B22D0BB6A202B58D84B
:10540800BB6A182B19D0BB6A182B52D8BB6A002B61
:1054180003D0BB6A082B08D04BE007F118031846E5
:10542800FEF730FFFB69FB6246E007F10C03184604
:10543800FFF794F8FB68FB623EE0564BFB623BE0EB
:10544800534BD3F8E83003F040437B62504B1B6862
:1054580003F00203022B0CD17B6A002B09D14C4BC1
:105468001B68DB0803F003034B4A22FA03F3FB62D1
:105478001EE0474B1B6803F40073B3F5007F06D1A9
:105488007B6AB3F1804F02D1444BFB6210E0404B82
:105498001B6803F40033B3F5003F06D17B6AB3F110
:1054A800004F02D13E4BFB6202E00023FB6203E0A7
:1054B80002E00023FB6200BFF1E0354BD3F8E03097
:1054C80003F4E073BB62BB6AB3F5807F23D0BB6A89
:1054D800B3F5807F58D8BB6AC02B19D0BB6AC02BE4
:1054E80052D8BB6A002B03D0BB6A402B08D04BE0D4
:1054F80007F118031846FEF7C5FEFB69FB6246E094
:1055080007F10C031846FFF729F8FB68FB623EE039
:10551800204BFB623BE01E4BD3F8E83003F04043DE
:105528007B621B4B1B6803F00203022B0CD17B6AC6
:10553800002B09D1164B1B68DB0803F00303164A3E
:1055480022FA03F3FB621EE0114B1B6803F400739D
:10555800B3F5007F06D17B6AB3F1804F02D10F4BC0
:10556800FB6210E00A4B1B6803F40033B3F5003FFD
:1055780006D17B6AB3F1004F02D1094BFB6202E00E
:105588000023FB6203E002E00023FB6200BF86E029
:10559800000C02440080BB000090D00300093D00CD
:1055A80000366E01404BD3F8E83003F03003BB629D
:1055B8003D4B1B6803F40053B3F5005F05D1BB6A8C
:1055C800002B02D1394BFB6231E0374B1B6803F0EB
:1055D8000073B3F1007F0AD1BB6A102B07D107F122
:1055E80018031846FEF74EFEFB69FB621FE02E4BC0
:1055F800D3F8F03003F00203022B06D1BB6A202B4C
:1056080003D14FF40043FB6211E0274BD3F8F0308D
:1056180003F00063B3F1006F06D1BB6A302B03D1EE
:105628004FF4FA43FB6202E00023FB6237E036E006
:105638001D4BD3F8E43003F03003BB62BB6A102B78
:1056480007D107F118031846FEF71CFEFB69FB6239
:1056580025E0154B1B6803F00063B3F1006F0AD116
:10566800BB6A202B07D107F10C031846FEF776FF1B
:105678003B69FB620FE00C4B1B6803F40053B3F566
:10568800005F05D1BB6A302B02D1084BFB6202E0F8
:105698000023FB6203E002E00023FB6200BFFB6A19
:1056A80018463037BD4680BD000C0244006CDC0251
:1056B80080B584B000AF7860484B1B68474A23F038
:1056C80080631360FBF7FCFCF86008E0FBF7F8FC6C
:1056D8000246FB68D31A022B01D903237AE03F4B19
:1056E8001B6803F00063002BF0D13C4BDB6A23F40A
:1056F8007C5323F003037A6811687A6852681202AF
:105708000A4336491343CB627B689B68013BC3F36A
:1057180008027B68DB68013B5B029BB21A437B682B
:105728001B69013B1B0403F4FE031A437B685B6996
:10573800013B1B0603F0FE4328491343CB63274B69
:10574800DB6A23F00C027B689B6924491343CB6214
:10575800224BDB6A23F020027B68DB691F49134375
:10576800CB621E4BDA6A7B685B6A1C491343CB62C7
:105778001A4BDB6A194A23F01003D362174B1B6CD0
:1057880023F47F4323F0F8037A68126AD20013499E
:1057980013430B64114BDB6A104A43F01003D362C6
:1057A8000E4B1B680D4A43F080631360FBF788FCBF
:1057B800F86008E0FBF784FC0246FB68D31A022B6A
:1057C80001D9032306E0054B1B6803F00063002B97
:1057D800F0D0002318461037BD4680BD000C0244A7
:1057E80080B582B000AF78607B68002B01D10123BF
:1057F80042E07B68D3F88830002B06D17B68002212
:1058080083F884207868FBF7B9F97B682422C3F809
:1058180088207B681B681A687B681B6822F0010275
:105828001A607B689B6A002B02D0786800F0F6FE4D
:10583800786800F075FD0346012B01D101231BE0B8
:105848007B681B685A687B681B6822F490425A6020
:105858007B681B689A687B681B6822F02A029A603A
:105868007B681B681A687B681B6842F001021A6033
:10587800786800F075FF034618460837BD4680BDB6
:1058880080B58AB002AFF860B9603B601346FB8010
:10589800FB68D3F88830202B40F08B80BB68002B46
:1058A80002D0FB88002B01D1012383E0FB681B6831
:1058B8009B6803F08003802B07D1FB681B689A68FC
:1058C800FB681B6822F080029A60FB680022C3F81C
:1058D8009020FB682122C3F88820FBF7F1FB786150
:1058E800FB68FA88A3F85420FB68FA88A3F85620C6
:1058F800FB689B68B3F5805F08D1FB681B69002BC8
:1059080004D10023FB61BB68BB6103E0BB68FB619A
:105918000023BB6130E03B6800937B690022802153
:10592800F86800F0C7FF0346002B05D0FB6820226B
:10593800C3F8882003233DE0FB69002B0BD1BB692A
:105948001B881A46FB681B68C2F308029A62BB6987
:105958000233BB6107E0FB691A78FB681B689A622F
:10596800FB690133FB61FB68B3F856309BB2013B1E
:105978009AB2FB68A3F85620FB68B3F856309BB27E
:10598800002BC8D13B6800937B6900224021F8684E
:1059980000F090FF0346002B05D0FB682022C3F8D7
:1059A8008820032306E0FB682022C3F88820002310
:1059B80000E0022318462037BD4680BD80B594B06C
:1059C80000AF78607B681B687B637B6B53E8003FA4
:1059D8003B633B6B23F4F073FB647B681B681A46DC
:1059E800FB6C3B64FA63F96B3A6C41E80023BB63D8
:1059F800BB6B002BE6D17B681B6808333B623B6AB4
:105A080053E8003FFB61FB6923F0845323F0010353
:105A1800BB647B681B680833BA6CFA62BB62B96AFC
:105A2800FA6A41E800237B627B6A002BE3D17B683A
:105A3800DB6E012B18D17B681B68FB60FB6853E8A1
:105A4800003FBB60BB6823F010037B647B681B6866
:105A58001A467B6CBB617A617969BA6941E80023AF
:105A68003B613B69002BE6D17B681B689B6803F0B0
:105A78008003802B1DD17B68DB6F002B19D07B68DE
:105A8800DB6F0022DA667B68DB6F1846FBF794FE53
:105A98000346002B0DD07B68DB6F1846FCF792F8A5
:105AA8000346102B05D17B681022C3F890200323EE
:105AB80059E07B681B689B6803F04003402B21D1A9
:105AC8007B68D3F88030002B1CD07B68D3F88030FB
